Component: ARM Compiler 5.06 update 7 (build 960) Tool: armlink [4d3601]

==============================================================================

Section Cross References

    startup_stm32g030xx.o(STACK) refers (Special) to heapauxi.o(.text) for __use_two_region_memory
    startup_stm32g030xx.o(HEAP) refers (Special) to heapauxi.o(.text) for __use_two_region_memory
    startup_stm32g030xx.o(RESET) refers (Special) to heapauxi.o(.text) for __use_two_region_memory
    startup_stm32g030xx.o(RESET) refers to startup_stm32g030xx.o(STACK) for __initial_sp
    startup_stm32g030xx.o(RESET) refers to startup_stm32g030xx.o(.text) for Reset_Handler
    startup_stm32g030xx.o(RESET) refers to stm32g0xx_it.o(i.NMI_Handler) for NMI_Handler
    startup_stm32g030xx.o(RESET) refers to stm32g0xx_it.o(i.HardFault_Handler) for HardFault_Handler
    startup_stm32g030xx.o(RESET) refers to stm32g0xx_it.o(i.SVC_Handler) for SVC_Handler
    startup_stm32g030xx.o(RESET) refers to stm32g0xx_it.o(i.PendSV_Handler) for PendSV_Handler
    startup_stm32g030xx.o(RESET) refers to stm32g0xx_it.o(i.SysTick_Handler) for SysTick_Handler
    startup_stm32g030xx.o(RESET) refers to stm32g0xx_it.o(i.USART1_IRQHandler) for USART1_IRQHandler
    startup_stm32g030xx.o(.text) refers (Special) to heapauxi.o(.text) for __use_two_region_memory
    startup_stm32g030xx.o(.text) refers to system_stm32g0xx.o(i.SystemInit) for SystemInit
    startup_stm32g030xx.o(.text) refers to __main.o(!!!main) for __main
    startup_stm32g030xx.o(.text) refers to startup_stm32g030xx.o(HEAP) for Heap_Mem
    startup_stm32g030xx.o(.text) refers to startup_stm32g030xx.o(STACK) for Stack_Mem
    main.o(i.HAL_UART_RxCpltCallback) refers to stm32g0xx_hal_uart.o(i.HAL_UART_Receive_IT) for HAL_UART_Receive_IT
    main.o(i.HAL_UART_RxCpltCallback) refers to main.o(.data) for .data
==============================================================================

Removing Unused input sections from the image.

    Removing main.o(.rev16_text), (4 bytes).
    Removing main.o(.revsh_text), (4 bytes).
    Removing main.o(i.Error_Handler), (4 bytes).
    Removing main.o(i.clearArr), (14 bytes).
    Removing main.o(.constdata), (1 bytes).
    Removing main.o(.constdata), (1 bytes).
    Removing main.o(.constdata), (1 bytes).
    Removing main.o(.data), (13 bytes).
    Removing main.o(.data), (1 bytes).
    Removing main.o(.data), (1 bytes).
    Removing stm32g0xx_it.o(.rev16_text), (4 bytes).
    Removing stm32g0xx_it.o(.revsh_text), (4 bytes).
    Removing stm32g0xx_hal_msp.o(.rev16_text), (4 bytes).
    Removing stm32g0xx_hal_msp.o(.revsh_text), (4 bytes).
    Removing stm32g0xx_hal_msp.o(i.HAL_TIM_Base_MspDeInit), (28 bytes).
    Removing stm32g0xx_hal_msp.o(i.HAL_UART_MspDeInit), (52 bytes).
    Removing communication.o(.rev16_text), (4 bytes).
    Removing communication.o(.revsh_text), (4 bytes).
==============================================================================

Image Symbol Table

    Local Symbols

    Symbol Name                              Value     Ov Type        Size  Object(Section)

    ../Core/Src/main.c                       0x00000000   Number         0  main.o ABSOLUTE
    ../Core/Src/stm32g0xx_hal_msp.c          0x00000000   Number         0  stm32g0xx_hal_msp.o ABSOLUTE
    ../Core/Src/stm32g0xx_it.c               0x00000000   Number         0  stm32g0xx_it.o ABSOLUTE
    ../Core/Src/system_stm32g0xx.c           0x00000000   Number         0  system_stm32g0xx.o ABSOLUTE
    ../Drivers/STM32G0xx_HAL_Driver/Src/stm32g0xx_hal.c 0x00000000   Number         0  stm32g0xx_hal.o ABSOLUTE
    ../Drivers/STM32G0xx_HAL_Driver/Src/stm32g0xx_hal_cortex.c 0x00000000   Number         0  stm32g0xx_hal_cortex.o ABSOLUTE
    ../Drivers/STM32G0xx_HAL_Driver/Src/stm32g0xx_hal_dma.c 0x00000000   Number         0  stm32g0xx_hal_dma.o ABSOLUTE
    ../Drivers/STM32G0xx_HAL_Driver/Src/stm32g0xx_hal_dma_ex.c 0x00000000   Number         0  stm32g0xx_hal_dma_ex.o ABSOLUTE
    ../Drivers/STM32G0xx_HAL_Driver/Src/stm32g0xx_hal_exti.c 0x00000000   Number         0  stm32g0xx_hal_exti.o ABSOLUTE
    ../Drivers/STM32G0xx_HAL_Driver/Src/stm32g0xx_hal_flash.c 0x00000000   Number         0  stm32g0xx_hal_flash.o ABSOLUTE
    ../Drivers/STM32G0xx_HAL_Driver/Src/stm32g0xx_hal_flash_ex.c 0x00000000   Number         0  stm32g0xx_hal_flash_ex.o ABSOLUTE
    ../Drivers/STM32G0xx_HAL_Driver/Src/stm32g0xx_hal_gpio.c 0x00000000   Number         0  stm32g0xx_hal_gpio.o ABSOLUTE
    ../Drivers/STM32G0xx_HAL_Driver/Src/stm32g0xx_hal_pwr.c 0x00000000   Number         0  stm32g0xx_hal_pwr.o ABSOLUTE
    ../Drivers/STM32G0xx_HAL_Driver/Src/stm32g0xx_hal_pwr_ex.c 0x00000000   Number         0  stm32g0xx_hal_pwr_ex.o ABSOLUTE
    ../Drivers/STM32G0xx_HAL_Driver/Src/stm32g0xx_hal_rcc.c 0x00000000   Number         0  stm32g0xx_hal_rcc.o ABSOLUTE
    ../Drivers/STM32G0xx_HAL_Driver/Src/stm32g0xx_hal_rcc_ex.c 0x00000000   Number         0  stm32g0xx_hal_rcc_ex.o ABSOLUTE
    ../Drivers/STM32G0xx_HAL_Driver/Src/stm32g0xx_hal_tim.c 0x00000000   Number         0  stm32g0xx_hal_tim.o ABSOLUTE
    ../Drivers/STM32G0xx_HAL_Driver/Src/stm32g0xx_hal_tim_ex.c 0x00000000   Number         0  stm32g0xx_hal_tim_ex.o ABSOLUTE
    ../Drivers/STM32G0xx_HAL_Driver/Src/stm32g0xx_hal_uart.c 0x00000000   Number         0  stm32g0xx_hal_uart.o ABSOLUTE
    ../Drivers/STM32G0xx_HAL_Driver/Src/stm32g0xx_hal_uart_ex.c 0x00000000   Number         0  stm32g0xx_hal_uart_ex.o ABSOLUTE
    ../Drivers/STM32G0xx_HAL_Driver/Src/stm32g0xx_ll_dma.c 0x00000000   Number         0  stm32g0xx_ll_dma.o ABSOLUTE
    ../Drivers/STM32G0xx_HAL_Driver/Src/stm32g0xx_ll_rcc.c 0x00000000   Number         0  stm32g0xx_ll_rcc.o ABSOLUTE
    ../clib/angel/boardlib.s                 0x00000000   Number         0  boardinit3.o ABSOLUTE
    ../clib/angel/boardlib.s                 0x00000000   Number         0  boardinit1.o ABSOLUTE
    ../clib/angel/boardlib.s                 0x00000000   Number         0  boardinit2.o ABSOLUTE
    ../clib/angel/boardlib.s                 0x00000000   Number         0  boardshut.o ABSOLUTE
    ../clib/angel/handlers.s                 0x00000000   Number         0  __scatter_copy.o ABSOLUTE
    ../clib/angel/handlers.s                 0x00000000   Number         0  __scatter_zi.o ABSOLUTE
    ../clib/angel/kernel.s                   0x00000000   Number         0  rtexit2.o ABSOLUTE
    ../clib/angel/kernel.s                   0x00000000   Number         0  rtexit.o ABSOLUTE
    ../clib/angel/kernel.s                   0x00000000   Number         0  __rtentry.o ABSOLUTE
    ../clib/angel/kernel.s                   0x00000000   Number         0  __rtentry4.o ABSOLUTE
    ../clib/angel/kernel.s                   0x00000000   Number         0  __rtentry2.o ABSOLUTE
    ../clib/angel/rt.s                       0x00000000   Number         0  rt_div0.o ABSOLUTE
    ../clib/angel/rt.s                       0x00000000   Number         0  rt_errno_addr_intlibspace.o ABSOLUTE
    ../clib/angel/rt.s                       0x00000000   Number         0  rt_locale_intlibspace.o ABSOLUTE
    ../clib/angel/rt.s                       0x00000000   Number         0  rt_errno_addr.o ABSOLUTE
    ../clib/angel/rt.s                       0x00000000   Number         0  rt_ctype_table.o ABSOLUTE
    ../clib/angel/rt.s                       0x00000000   Number         0  rt_raise.o ABSOLUTE
    ../clib/angel/rt.s                       0x00000000   Number         0  rt_locale.o ABSOLUTE
    ../clib/angel/rt.s                       0x00000000   Number         0  aeabi_idiv0.o ABSOLUTE
    ../clib/angel/rt.s                       0x00000000   Number         0  aeabi_idiv0_sigfpe.o ABSOLUTE
    ../clib/angel/rt.s                       0x00000000   Number         0  rt_heap_descriptor.o ABSOLUTE
    ../clib/angel/rt.s                       0x00000000   Number         0  rt_heap_descriptor_intlibspace.o ABSOLUTE
    ../clib/angel/scatterp.s                 0x00000000   Number         0  __scatter.o ABSOLUTE
    ../clib/angel/startup.s                  0x00000000   Number         0  __main.o ABSOLUTE
    ../clib/angel/sys.s                      0x00000000   Number         0  mutex_dummy.o ABSOLUTE
    ../clib/angel/sys.s                      0x00000000   Number         0  libspace.o ABSOLUTE
    ../clib/angel/sys.s                      0x00000000   Number         0  indicate_semi.o ABSOLUTE
    ../clib/angel/sys.s                      0x00000000   Number         0  sys_stackheap_outer.o ABSOLUTE
    ../clib/angel/sys.s                      0x00000000   Number         0  use_no_semi.o ABSOLUTE
    ../clib/angel/sys.s                      0x00000000   Number         0  tempstk.o ABSOLUTE
    ../clib/angel/sysapp.c                   0x00000000   Number         0  sys_command.o ABSOLUTE
    ../clib/angel/sysapp.c                   0x00000000   Number         0  sys_wrch.o ABSOLUTE
    ../clib/angel/sysapp.c                   0x00000000   Number         0  sys_exit.o ABSOLUTE
    ../clib/armsys.c                         0x00000000   Number         0  no_argv.o ABSOLUTE
    ../clib/armsys.c                         0x00000000   Number         0  argv_veneer.o ABSOLUTE
    ../clib/armsys.c                         0x00000000   Number         0  _get_argv.o ABSOLUTE
    ../clib/armsys.c                         0x00000000   Number         0  _get_argv_nomalloc.o ABSOLUTE
    ../clib/bigflt.c                         0x00000000   Number         0  bigflt0.o ABSOLUTE
    ../clib/btod.c                           0x00000000   Number         0  btod.o ABSOLUTE
    ../clib/ctype.c                          0x00000000   Number         0  isspace.o ABSOLUTE
    ../clib/division.s                       0x00000000   Number         0  aeabi_sdiv.o ABSOLUTE
    ../clib/division.s                       0x00000000   Number         0  aeabi_sdiv_div0.o ABSOLUTE
    ../clib/fenv.c                           0x00000000   Number         0  _rserrno.o ABSOLUTE
    ../clib/heap1.c                          0x00000000   Number         0  h1_free_mt.o ABSOLUTE
    ../clib/heap1.c                          0x00000000   Number         0  h1_free.o ABSOLUTE
    ../clib/heap1.c                          0x00000000   Number         0  h1_alloc_mt.o ABSOLUTE
    ../clib/heap1.c                          0x00000000   Number         0  h1_extend_mt.o ABSOLUTE
    ../clib/heap1.c                          0x00000000   Number         0  h1_alloc.o ABSOLUTE
    ../clib/heap1.c                          0x00000000   Number         0  h1_extend.o ABSOLUTE
    ../clib/heap1.c                          0x00000000   Number         0  h1_final.o ABSOLUTE
    ../clib/heap1.c                          0x00000000   Number         0  h1_final_mt.o ABSOLUTE
    ../clib/heap1.c                          0x00000000   Number         0  h1_init.o ABSOLUTE
    ../clib/heap1.c                          0x00000000   Number         0  h1_init_mt.o ABSOLUTE
    ../clib/heap2.c                          0x00000000   Number         0  heap2.o ABSOLUTE
    ../clib/heap2.c                          0x00000000   Number         0  heap2mt.o ABSOLUTE
    ../clib/heap2.c                          0x00000000   Number         0  fdtree.o ABSOLUTE
    ../clib/heapalloc.c                      0x00000000   Number         0  term_alloc.o ABSOLUTE
    ../clib/heapalloc.c                      0x00000000   Number         0  maybetermalloc1.o ABSOLUTE
    ../clib/heapalloc.c                      0x00000000   Number         0  free.o ABSOLUTE
    ../clib/heapalloc.c                      0x00000000   Number         0  malloc.o ABSOLUTE
    ../clib/heapalloc.c                      0x00000000   Number         0  hguard.o ABSOLUTE
    ../clib/heapalloc.c                      0x00000000   Number         0  init_alloc.o ABSOLUTE
    ../clib/heapalloc.c                      0x00000000   Number         0  heapstubs.o ABSOLUTE
    ../clib/heapalloc.c                      0x00000000   Number         0  hrguard.o ABSOLUTE
    ../clib/heapalloc.c                      0x00000000   Number         0  maybetermalloc1.o ABSOLUTE
    ../clib/heapalloc.c                      0x00000000   Number         0  maybetermalloc2.o ABSOLUTE
    ../clib/heapalloc.c                      0x00000000   Number         0  maybetermalloc2.o ABSOLUTE
    ../clib/heapaux.c                        0x00000000   Number         0  heapauxi.o ABSOLUTE
    ../clib/heapaux.c                        0x00000000   Number         0  heapauxa.o ABSOLUTE
    ../clib/libinit.s                        0x00000000   Number         0  libinit2.o ABSOLUTE
    ../clib/libinit.s                        0x00000000   Number         0  libshutdown2.o ABSOLUTE
    ../clib/libinit.s                        0x00000000   Number         0  libinit.o ABSOLUTE
    ../clib/libinit.s                        0x00000000   Number         0  libshutdown.o ABSOLUTE
    ../clib/locale.s                         0x00000000   Number         0  lc_numeric_c.o ABSOLUTE
    ../clib/locale.s                         0x00000000   Number         0  lc_ctype_c.o ABSOLUTE
    ../clib/longlong.c                       0x00000000   Number         0  llmul.o ABSOLUTE
    ../clib/longlong.c                       0x00000000   Number         0  llshl.o ABSOLUTE
    ../clib/memcpset.c                       0x00000000   Number         0  rt_memcpy.o ABSOLUTE
    ../clib/memcpset.c                       0x00000000   Number         0  rt_memcpy.o ABSOLUTE
    ../clib/memcpset.c                       0x00000000   Number         0  rt_memclr.o ABSOLUTE
    ../clib/scanf.c                          0x00000000   Number         0  scanf_fp.o ABSOLUTE
    ../clib/scanf.c                          0x00000000   Number         0  scanf_hexfp.o ABSOLUTE
    ../clib/scanf.c                          0x00000000   Number         0  scanf_infnan.o ABSOLUTE
    ../clib/scanf.c                          0x00000000   Number         0  _chval.o ABSOLUTE
    ../clib/scanf.c                          0x00000000   Number         0  _sgetc.o ABSOLUTE
    ../clib/scanf.c                          0x00000000   Number         0  strtod.o ABSOLUTE
    ../clib/signal.c                         0x00000000   Number         0  defsig_general.o ABSOLUTE
    ../clib/signal.c                         0x00000000   Number         0  defsig_fpe_formal.o ABSOLUTE
    ../clib/signal.c                         0x00000000   Number         0  defsig_rtred_inner.o ABSOLUTE
    ../clib/signal.c                         0x00000000   Number         0  defsig_exit.o ABSOLUTE
    ../clib/signal.c                         0x00000000   Number         0  defsig_rtmem_inner.o ABSOLUTE
    ../clib/signal.c                         0x00000000   Number         0  defsig_stak_inner.o ABSOLUTE
    ../clib/signal.c                         0x00000000   Number         0  defsig_pvfn_inner.o ABSOLUTE
    ../clib/signal.c                         0x00000000   Number         0  defsig_cppl_inner.o ABSOLUTE
    ../clib/signal.c                         0x00000000   Number         0  defsig_segv_inner.o ABSOLUTE
    ../clib/signal.c                         0x00000000   Number         0  defsig_rtmem_outer.o ABSOLUTE
    ../clib/signal.c                         0x00000000   Number         0  defsig_other.o ABSOLUTE
    ../clib/signal.c                         0x00000000   Number         0  defsig_rtmem_formal.o ABSOLUTE
    ../clib/signal.c                         0x00000000   Number         0  defsig_abrt_inner.o ABSOLUTE
    ../clib/signal.c                         0x00000000   Number         0  __raise.o ABSOLUTE
    ../clib/signal.c                         0x00000000   Number         0  defsig_fpe_inner.o ABSOLUTE
    ../clib/signal.c                         0x00000000   Number         0  defsig_fpe_outer.o ABSOLUTE
    ../clib/signal.s                         0x00000000   Number         0  defsig.o ABSOLUTE
    ../clib/stdlib.c                         0x00000000   Number         0  exit.o ABSOLUTE
    ../clib/string.c                         0x00000000   Number         0  strcmp.o ABSOLUTE
    ../fplib/cfplib/cmpret.c                 0x00000000   Number         0  cmpret.o ABSOLUTE
    ../fplib/cfplib/d2f.c                    0x00000000   Number         0  d2f.o ABSOLUTE
    ../fplib/cfplib/daddsub.c                0x00000000   Number         0  daddsub.o ABSOLUTE
    ../fplib/cfplib/dcmpin.c                 0x00000000   Number         0  dcmpin.o ABSOLUTE
    ../fplib/cfplib/ddiv.c                   0x00000000   Number         0  ddiv.o ABSOLUTE
    ../fplib/cfplib/dmul.c                   0x00000000   Number         0  dmul.o ABSOLUTE
    ../fplib/cfplib/dsqrt.c                  0x00000000   Number         0  dsqrt.o ABSOLUTE
    ../fplib/cfplib/ffix.c                   0x00000000   Number         0  ffixui.o ABSOLUTE
    ../fplib/cfplib/ffix.c                   0x00000000   Number         0  dfixi.o ABSOLUTE
    ../fplib/cfplib/fflt.c                   0x00000000   Number         0  dflti.o ABSOLUTE
    ../fplib/cfplib/fflt.c                   0x00000000   Number         0  fflti.o ABSOLUTE
    ../fplib/cfplib/fpinit.c                 0x00000000   Number         0  fpinit.o ABSOLUTE
    ../fplib/cfplib/ieee_status.c            0x00000000   Number         0  ieee_status.o ABSOLUTE
    ../fplib/cfplib/nan2.c                   0x00000000   Number         0  dnan2.o ABSOLUTE
    ../fplib/cfplib/retnan.c                 0x00000000   Number         0  retnan.o ABSOLUTE
    ../fplib/cfplib/scalbn.c                 0x00000000   Number         0  dscalbn.o ABSOLUTE
    ../fplib/deqf6m.s                        0x00000000   Number         0  deqf.o ABSOLUTE
    ../fplib/dleqf6m.s                       0x00000000   Number         0  dlef.o ABSOLUTE
    ../fplib/drleqf6m.s                      0x00000000   Number         0  drlef.o ABSOLUTE
    ../fplib/fmul6m.s                        0x00000000   Number         0  fmul.o ABSOLUTE
    ../fplib/fpconst.s                       0x00000000   Number         0  fpconst.o ABSOLUTE
    ../fplib/scanf1.s                        0x00000000   Number         0  scanf1.o ABSOLUTE
    ../fplib/scanf2.s                        0x00000000   Number         0  scanf2.o ABSOLUTE
    ../fplib/scanf2a.s                       0x00000000   Number         0  scanf2a.o ABSOLUTE
    ../fplib/scanf2b.s                       0x00000000   Number         0  scanf2b.o ABSOLUTE
    ../fplib/usenofp.s                       0x00000000   Number         0  usenofp.o ABSOLUTE
    ../mathlib/atof.c                        0x00000000   Number         0  atof.o ABSOLUTE
    ../mathlib/dunder.c                      0x00000000   Number         0  dunder.o ABSOLUTE
    ../mathlib/fpclassify.c                  0x00000000   Number         0  fpclassify.o ABSOLUTE
    ../mathlib/frexp.c                       0x00000000   Number         0  frexp.o ABSOLUTE
    ../mathlib/ldexp.c                       0x00000000   Number         0  ldexp_x.o ABSOLUTE
    ../mathlib/ldexp.c                       0x00000000   Number         0  ldexp.o ABSOLUTE
    ../mathlib/narrow.c                      0x00000000   Number         0  narrow.o ABSOLUTE
    ../mathlib/poly.c                        0x00000000   Number         0  poly.o ABSOLUTE
    ../mathlib/pow.c                         0x00000000   Number         0  pow_x.o ABSOLUTE
    ../mathlib/pow.c                         0x00000000   Number         0  pow.o ABSOLUTE
    ../mathlib/qnan.c                        0x00000000   Number         0  qnan.o ABSOLUTE
    ../mathlib/sqrt.c                        0x00000000   Number         0  sqrt.o ABSOLUTE
    ../mathlib/sqrt.c                        0x00000000   Number         0  sqrt_x.o ABSOLUTE
    ..\Core\Src\US100.c                      0x00000000   Number         0  us100.o ABSOLUTE
    ..\Core\Src\communication.c              0x00000000   Number         0  communication.o ABSOLUTE
    ..\Core\Src\main.c                       0x00000000   Number         0  main.o ABSOLUTE
    ..\Core\Src\stm32g0xx_hal_msp.c          0x00000000   Number         0  stm32g0xx_hal_msp.o ABSOLUTE
    ..\Core\Src\stm32g0xx_it.c               0x00000000   Number         0  stm32g0xx_it.o ABSOLUTE
    ..\Core\Src\system_stm32g0xx.c           0x00000000   Number         0  system_stm32g0xx.o ABSOLUTE
    ..\Drivers\STM32G0xx_HAL_Driver\Src\stm32g0xx_hal.c 0x00000000   Number         0  stm32g0xx_hal.o ABSOLUTE
    ..\Drivers\STM32G0xx_HAL_Driver\Src\stm32g0xx_hal_cortex.c 0x00000000   Number         0  stm32g0xx_hal_cortex.o ABSOLUTE
    ..\Drivers\STM32G0xx_HAL_Driver\Src\stm32g0xx_hal_dma.c 0x00000000   Number         0  stm32g0xx_hal_dma.o ABSOLUTE
    ..\Drivers\STM32G0xx_HAL_Driver\Src\stm32g0xx_hal_dma_ex.c 0x00000000   Number         0  stm32g0xx_hal_dma_ex.o ABSOLUTE
    ..\Drivers\STM32G0xx_HAL_Driver\Src\stm32g0xx_hal_exti.c 0x00000000   Number         0  stm32g0xx_hal_exti.o ABSOLUTE
    ..\Drivers\STM32G0xx_HAL_Driver\Src\stm32g0xx_hal_flash.c 0x00000000   Number         0  stm32g0xx_hal_flash.o ABSOLUTE
    ..\Drivers\STM32G0xx_HAL_Driver\Src\stm32g0xx_hal_flash_ex.c 0x00000000   Number         0  stm32g0xx_hal_flash_ex.o ABSOLUTE
    ..\Drivers\STM32G0xx_HAL_Driver\Src\stm32g0xx_hal_gpio.c 0x00000000   Number         0  stm32g0xx_hal_gpio.o ABSOLUTE
    ..\Drivers\STM32G0xx_HAL_Driver\Src\stm32g0xx_hal_pwr.c 0x00000000   Number         0  stm32g0xx_hal_pwr.o ABSOLUTE
    ..\Drivers\STM32G0xx_HAL_Driver\Src\stm32g0xx_hal_pwr_ex.c 0x00000000   Number         0  stm32g0xx_hal_pwr_ex.o ABSOLUTE
    ..\Drivers\STM32G0xx_HAL_Driver\Src\stm32g0xx_hal_rcc.c 0x00000000   Number         0  stm32g0xx_hal_rcc.o ABSOLUTE
    ..\Drivers\STM32G0xx_HAL_Driver\Src\stm32g0xx_hal_rcc_ex.c 0x00000000   Number         0  stm32g0xx_hal_rcc_ex.o ABSOLUTE
    ..\Drivers\STM32G0xx_HAL_Driver\Src\stm32g0xx_hal_tim.c 0x00000000   Number         0  stm32g0xx_hal_tim.o ABSOLUTE
    ..\Drivers\STM32G0xx_HAL_Driver\Src\stm32g0xx_hal_tim_ex.c 0x00000000   Number         0  stm32g0xx_hal_tim_ex.o ABSOLUTE
    ..\Drivers\STM32G0xx_HAL_Driver\Src\stm32g0xx_hal_uart.c 0x00000000   Number         0  stm32g0xx_hal_uart.o ABSOLUTE
    ..\Drivers\STM32G0xx_HAL_Driver\Src\stm32g0xx_hal_uart_ex.c 0x00000000   Number         0  stm32g0xx_hal_uart_ex.o ABSOLUTE
    ..\\Core\\Src\\US100.c                   0x00000000   Number         0  us100.o ABSOLUTE
    ..\\Core\\Src\\communication.c           0x00000000   Number         0  communication.o ABSOLUTE
    dc.s                                     0x00000000   Number         0  dc.o ABSOLUTE
    startup_stm32g030xx.s                    0x00000000   Number         0  startup_stm32g030xx.o ABSOLUTE
    RESET                                    0x08000000   Section      192  startup_stm32g030xx.o(RESET)
    !!!main                                  0x080000c0   Section        8  __main.o(!!!main)
    !!!scatter                               0x080000c8   Section       60  __scatter.o(!!!scatter)
    !!handler_copy                           0x08000104   Section       26  __scatter_copy.o(!!handler_copy)
    !!handler_zi                             0x08000120   Section       28  __scatter_zi.o(!!handler_zi)
    .ARM.Collect$$libinit$$00000000          0x0800013c   Section        2  libinit.o(.ARM.Collect$$libinit$$00000000)
    .ARM.Collect$$libinit$$00000002          0x0800013e   Section        0  libinit2.o(.ARM.Collect$$libinit$$00000002)
    .ARM.Collect$$libinit$$00000004          0x0800013e   Section        0  libinit2.o(.ARM.Collect$$libinit$$00000004)
    .ARM.Collect$$libinit$$00000005          0x0800013e   Section        8  libinit2.o(.ARM.Collect$$libinit$$00000005)
    .ARM.Collect$$libinit$$0000000A          0x08000146   Section        0  libinit2.o(.ARM.Collect$$libinit$$0000000A)
    .ARM.Collect$$libinit$$0000000C          0x08000146   Section        0  libinit2.o(.ARM.Collect$$libinit$$0000000C)
    .ARM.Collect$$libinit$$0000000E          0x08000146   Section        0  libinit2.o(.ARM.Collect$$libinit$$0000000E)
    .ARM.Collect$$libinit$$0000000F          0x08000146   Section        6  libinit2.o(.ARM.Collect$$libinit$$0000000F)
    .ARM.Collect$$libinit$$00000011          0x0800014c   Section        0  libinit2.o(.ARM.Collect$$libinit$$00000011)
    .ARM.Collect$$libinit$$00000012          0x0800014c   Section       12  libinit2.o(.ARM.Collect$$libinit$$00000012)
    .ARM.Collect$$libinit$$00000013          0x08000158   Section        0  libinit2.o(.ARM.Collect$$libinit$$00000013)
    .ARM.Collect$$libinit$$00000015          0x08000158   Section        0  libinit2.o(.ARM.Collect$$libinit$$00000015)
    .ARM.Collect$$libinit$$00000016          0x08000158   Section       10  libinit2.o(.ARM.Collect$$libinit$$00000016)
    .ARM.Collect$$libinit$$00000017          0x08000162   Section        0  libinit2.o(.ARM.Collect$$libinit$$00000017)
    .ARM.Collect$$libinit$$00000019          0x08000162   Section        0  libinit2.o(.ARM.Collect$$libinit$$00000019)
    .ARM.Collect$$libinit$$0000001B          0x08000162   Section        0  libinit2.o(.ARM.Collect$$libinit$$0000001B)
    .ARM.Collect$$libinit$$0000001D          0x08000162   Section        0  libinit2.o(.ARM.Collect$$libinit$$0000001D)
    .ARM.Collect$$libinit$$0000001F          0x08000162   Section        0  libinit2.o(.ARM.Collect$$libinit$$0000001F)
    .ARM.Collect$$libinit$$00000021          0x08000162   Section        0  libinit2.o(.ARM.Collect$$libinit$$00000021)
    .ARM.Collect$$libinit$$00000023          0x08000162   Section        0  libinit2.o(.ARM.Collect$$libinit$$00000023)
    .ARM.Collect$$libinit$$00000025          0x08000162   Section        0  libinit2.o(.ARM.Collect$$libinit$$00000025)
    .ARM.Collect$$libinit$$0000002C          0x08000162   Section        0  libinit2.o(.ARM.Collect$$libinit$$0000002C)
    .ARM.Collect$$libinit$$0000002E          0x08000162   Section        0  libinit2.o(.ARM.Collect$$libinit$$0000002E)
    .ARM.Collect$$libinit$$00000030          0x08000162   Section        0  libinit2.o(.ARM.Collect$$libinit$$00000030)
    .ARM.Collect$$libinit$$00000032          0x08000162   Section        0  libinit2.o(.ARM.Collect$$libinit$$00000032)
    .ARM.Collect$$libinit$$00000033          0x08000162   Section        2  libinit2.o(.ARM.Collect$$libinit$$00000033)
    .ARM.Collect$$libshutdown$$00000000      0x08000164   Section        2  libshutdown.o(.ARM.Collect$$libshutdown$$00000000)
    .ARM.Collect$$libshutdown$$00000002      0x08000166   Section        0  libshutdown2.o(.ARM.Collect$$libshutdown$$00000002)
    .ARM.Collect$$libshutdown$$00000004      0x08000166   Section        0  libshutdown2.o(.ARM.Collect$$libshutdown$$00000004)
    .ARM.Collect$$libshutdown$$00000006      0x08000166   Section        0  libshutdown2.o(.ARM.Collect$$libshutdown$$00000006)
    .ARM.Collect$$libshutdown$$00000009      0x08000166   Section        0  libshutdown2.o(.ARM.Collect$$libshutdown$$00000009)
    .ARM.Collect$$libshutdown$$0000000C      0x08000166   Section        0  libshutdown2.o(.ARM.Collect$$libshutdown$$0000000C)
    .ARM.Collect$$libshutdown$$0000000E      0x08000166   Section        0  libshutdown2.o(.ARM.Collect$$libshutdown$$0000000E)
    .ARM.Collect$$libshutdown$$00000011      0x08000166   Section        0  libshutdown2.o(.ARM.Collect$$libshutdown$$00000011)
    .ARM.Collect$$libshutdown$$00000012      0x08000166   Section        2  libshutdown2.o(.ARM.Collect$$libshutdown$$00000012)
    .ARM.Collect$$rtentry$$00000000          0x08000168   Section        0  __rtentry.o(.ARM.Collect$$rtentry$$00000000)
    .ARM.Collect$$rtentry$$00000002          0x08000168   Section        0  __rtentry2.o(.ARM.Collect$$rtentry$$00000002)
    .ARM.Collect$$rtentry$$00000004          0x08000168   Section        6  __rtentry4.o(.ARM.Collect$$rtentry$$00000004)
    .ARM.Collect$$rtentry$$00000009          0x0800016e   Section        0  __rtentry2.o(.ARM.Collect$$rtentry$$00000009)
    .ARM.Collect$$rtentry$$0000000A          0x0800016e   Section        4  __rtentry2.o(.ARM.Collect$$rtentry$$0000000A)
    .ARM.Collect$$rtentry$$0000000C          0x08000172   Section        0  __rtentry2.o(.ARM.Collect$$rtentry$$0000000C)
    .ARM.Collect$$rtentry$$0000000D          0x08000172   Section        8  __rtentry2.o(.ARM.Collect$$rtentry$$0000000D)
    .ARM.Collect$$rtexit$$00000000           0x0800017a   Section        2  rtexit.o(.ARM.Collect$$rtexit$$00000000)
    .ARM.Collect$$rtexit$$00000002           0x0800017c   Section        0  rtexit2.o(.ARM.Collect$$rtexit$$00000002)
    .ARM.Collect$$rtexit$$00000003           0x0800017c   Section        4  rtexit2.o(.ARM.Collect$$rtexit$$00000003)
    .ARM.Collect$$rtexit$$00000004           0x08000180   Section        6  rtexit2.o(.ARM.Collect$$rtexit$$00000004)
    .emb_text                                0x08000188   Section        0  maybetermalloc1.o(.emb_text)
    .text                                    0x08000188   Section       56  startup_stm32g030xx.o(.text)
    .text                                    0x080001c0   Section        0  h1_alloc.o(.text)
    .text                                    0x08000222   Section        0  h1_free.o(.text)
    .text                                    0x0800026e   Section        0  rt_memclr.o(.text)
    .text                                    0x080002ae   Section      346  aeabi_sdiv.o(.text)
    .text                                    0x08000408   Section        0  heapauxi.o(.text)
    .text                                    0x08000410   Section        0  d2f.o(.text)
    .text                                    0x0800048c   Section        0  ddiv.o(.text)
    .text                                    0x080008d4   Section        0  dfixi.o(.text)
    .text                                    0x08000940   Section        0  dflti.o(.text)
    .text                                    0x08000998   Section        0  ffixui.o(.text)
    .text                                    0x080009c8   Section        0  fflti.o(.text)
    .text                                    0x08000a28   Section        8  rt_heap_descriptor_intlibspace.o(.text)
    .text                                    0x08000a30   Section        0  hguard.o(.text)
    .text                                    0x08000a34   Section        0  init_alloc.o(.text)
    .text                                    0x08000abc   Section        0  h1_init.o(.text)
    .text                                    0x08000aca   Section        0  _rserrno.o(.text)
    .text                                    0x08000ae0   Section        0  strtod.o(.text)
    _local_sscanf                            0x08000ae1   Thumb Code    60  strtod.o(.text)
    .text                                    0x08000b8c   Section        0  daddsub.o(.text)
    _dadd1                                   0x08000b8d   Thumb Code   290  daddsub.o(.text)
    _dsub1                                   0x08000caf   Thumb Code   470  daddsub.o(.text)
    .text                                    0x08000ee4   Section        0  dmul.o(.text)
    .text                                    0x0800112c   Section        0  dscalbn.o(.text)
    .text                                    0x0800118c   Section        8  libspace.o(.text)
    .text                                    0x08001194   Section        8  rt_errno_addr_intlibspace.o(.text)
    .text                                    0x0800119c   Section        0  h1_extend.o(.text)
    .text                                    0x080011d0   Section        0  isspace.o(.text)
    .text                                    0x080011e2   Section        0  _sgetc.o(.text)
    .text                                    0x08001226   Section        0  defsig_rtmem_outer.o(.text)
    .text                                    0x08001234   Section        0  dcmpin.o(.text)
    .text                                    0x080012c4   Section        0  dsqrt.o(.text)
    .text                                    0x080013c4   Section        2  use_no_semi.o(.text)
    .text                                    0x080013c6   Section       62  sys_stackheap_outer.o(.text)
    .text                                    0x080013c6   Section        0  indicate_semi.o(.text)
    .text                                    0x08001404   Section       16  rt_ctype_table.o(.text)
    .text                                    0x08001414   Section        0  scanf_fp.o(.text)
    _fp_value                                0x08001415   Thumb Code   602  scanf_fp.o(.text)
    .text                                    0x08001934   Section        0  exit.o(.text)
    .text                                    0x08001944   Section        0  defsig_exit.o(.text)
    .text                                    0x08001950   Section        0  defsig_rtmem_inner.o(.text)
    .text                                    0x080019a0   Section        0  strcmp.o(.text)
    .text                                    0x08001a28   Section        0  cmpret.o(.text)
    .text                                    0x08001a58   Section        0  dnan2.o(.text)
    .text                                    0x08001a6c   Section        0  sys_exit.o(.text)
    .text                                    0x08001a78   Section        8  rt_locale_intlibspace.o(.text)
    .text                                    0x08001a80   Section        0  llmul.o(.text)
    .text                                    0x08001ab0   Section        0  bigflt0.o(.text)
    .text                                    0x08001b88   Section        0  btod.o(.text)
    btod_internal_mul                        0x08001bc9   Thumb Code   492  btod.o(.text)
    btod_internal_div                        0x08001db5   Thumb Code   520  btod.o(.text)
    .text                                    0x08002108   Section        0  defsig_general.o(.text)
    .text                                    0x0800213c   Section        0  retnan.o(.text)
    .text                                    0x0800219a   Section        0  sys_wrch.o(.text)
    .text                                    0x080021a8   Section        0  scanf_hexfp.o(.text)
    .text                                    0x080024dc   Section        0  scanf_infnan.o(.text)
    .text                                    0x08002618   Section        0  llshl.o(.text)
    .text                                    0x08002638   Section        0  _chval.o(.text)
    i.Crc8                                   0x08002658   Section        0  main.o(i.Crc8)
    i.HAL_DMA_Abort                          0x08002688   Section        0  stm32g0xx_hal_dma.o(i.HAL_DMA_Abort)
    i.HAL_DMA_Abort_IT                       0x080026fc   Section        0  stm32g0xx_hal_dma.o(i.HAL_DMA_Abort_IT)
    i.HAL_Delay                              0x08002778   Section        0  stm32g0xx_hal.o(i.HAL_Delay)
    i.HAL_GPIO_Init                          0x0800279c   Section        0  stm32g0xx_hal_gpio.o(i.HAL_GPIO_Init)
    i.HAL_GPIO_ReadPin                       0x080028f4   Section        0  stm32g0xx_hal_gpio.o(i.HAL_GPIO_ReadPin)
    i.HAL_GPIO_WritePin                      0x080028fe   Section        0  stm32g0xx_hal_gpio.o(i.HAL_GPIO_WritePin)
    i.HAL_GetTick                            0x0800290c   Section        0  stm32g0xx_hal.o(i.HAL_GetTick)
    i.HAL_IncTick                            0x08002918   Section        0  stm32g0xx_hal.o(i.HAL_IncTick)
    i.HAL_Init                               0x08002928   Section        0  stm32g0xx_hal.o(i.HAL_Init)
    i.HAL_InitTick                           0x08002950   Section        0  stm32g0xx_hal.o(i.HAL_InitTick)
    i.HAL_MspInit                            0x08002998   Section        0  stm32g0xx_hal_msp.o(i.HAL_MspInit)
    i.HAL_NVIC_EnableIRQ                     0x080029c4   Section        0  stm32g0xx_hal_cortex.o(i.HAL_NVIC_EnableIRQ)
    i.HAL_NVIC_SetPriority                   0x080029dc   Section        0  stm32g0xx_hal_cortex.o(i.HAL_NVIC_SetPriority)
    i.HAL_PWREx_ControlVoltageScaling        0x080029e4   Section        0  stm32g0xx_hal_pwr_ex.o(i.HAL_PWREx_ControlVoltageScaling)
    i.HAL_RCCEx_PeriphCLKConfig              0x08002a30   Section        0  stm32g0xx_hal_rcc_ex.o(i.HAL_RCCEx_PeriphCLKConfig)
    i.HAL_RCC_ClockConfig                    0x08002b7c   Section        0  stm32g0xx_hal_rcc.o(i.HAL_RCC_ClockConfig)
    i.HAL_RCC_GetPCLK1Freq                   0x08002cd4   Section        0  stm32g0xx_hal_rcc.o(i.HAL_RCC_GetPCLK1Freq)
    i.HAL_RCC_GetSysClockFreq                0x08002cfc   Section        0  stm32g0xx_hal_rcc.o(i.HAL_RCC_GetSysClockFreq)
    i.HAL_RCC_OscConfig                      0x08002d88   Section        0  stm32g0xx_hal_rcc.o(i.HAL_RCC_OscConfig)
    i.HAL_SYSTICK_Config                     0x08003168   Section        0  stm32g0xx_hal_cortex.o(i.HAL_SYSTICK_Config)
    i.HAL_TIMEx_MasterConfigSynchronization  0x08003198   Section        0  stm32g0xx_hal_tim_ex.o(i.HAL_TIMEx_MasterConfigSynchronization)
    i.HAL_TIM_Base_Init                      0x080031fc   Section        0  stm32g0xx_hal_tim.o(i.HAL_TIM_Base_Init)
    i.HAL_TIM_Base_MspInit                   0x08003248   Section        0  stm32g0xx_hal_msp.o(i.HAL_TIM_Base_MspInit)
    i.HAL_TIM_Base_Start                     0x0800326c   Section        0  stm32g0xx_hal_tim.o(i.HAL_TIM_Base_Start)
    i.HAL_TIM_ConfigClockSource              0x080032b4   Section        0  stm32g0xx_hal_tim.o(i.HAL_TIM_ConfigClockSource)
    i.HAL_UARTEx_DisableFifoMode             0x0800338c   Section        0  stm32g0xx_hal_uart_ex.o(i.HAL_UARTEx_DisableFifoMode)
    i.HAL_UARTEx_RxEventCallback             0x080033c8   Section        0  stm32g0xx_hal_uart.o(i.HAL_UARTEx_RxEventCallback)
    i.HAL_UARTEx_RxFifoFullCallback          0x080033ca   Section        0  stm32g0xx_hal_uart_ex.o(i.HAL_UARTEx_RxFifoFullCallback)
    i.HAL_UARTEx_SetRxFifoThreshold          0x080033cc   Section        0  stm32g0xx_hal_uart_ex.o(i.HAL_UARTEx_SetRxFifoThreshold)
    i.HAL_UARTEx_SetTxFifoThreshold          0x08003414   Section        0  stm32g0xx_hal_uart_ex.o(i.HAL_UARTEx_SetTxFifoThreshold)
    i.HAL_UARTEx_TxFifoEmptyCallback         0x0800345a   Section        0  stm32g0xx_hal_uart_ex.o(i.HAL_UARTEx_TxFifoEmptyCallback)
    i.HAL_UARTEx_WakeupCallback              0x0800345c   Section        0  stm32g0xx_hal_uart_ex.o(i.HAL_UARTEx_WakeupCallback)
    i.HAL_UART_ErrorCallback                 0x0800345e   Section        0  stm32g0xx_hal_uart.o(i.HAL_UART_ErrorCallback)
    i.HAL_UART_IRQHandler                    0x08003460   Section        0  stm32g0xx_hal_uart.o(i.HAL_UART_IRQHandler)
    i.HAL_UART_Init                          0x08003748   Section        0  stm32g0xx_hal_uart.o(i.HAL_UART_Init)
    i.HAL_UART_MspInit                       0x080037b4   Section        0  stm32g0xx_hal_msp.o(i.HAL_UART_MspInit)
    i.HAL_UART_Receive_IT                    0x08003824   Section        0  stm32g0xx_hal_uart.o(i.HAL_UART_Receive_IT)
    i.HAL_UART_RxCpltCallback                0x08003888   Section        0  main.o(i.HAL_UART_RxCpltCallback)
    i.HAL_UART_Transmit                      0x080038f8   Section        0  stm32g0xx_hal_uart.o(i.HAL_UART_Transmit)
    i.HAL_UART_TxCpltCallback                0x080039d0   Section        0  stm32g0xx_hal_uart.o(i.HAL_UART_TxCpltCallback)
    i.HardFault_Handler                      0x080039d2   Section        0  stm32g0xx_it.o(i.HardFault_Handler)
    i.Init_us100                             0x080039d4   Section        0  us100.o(i.Init_us100)
    i.MX_GPIO_Init                           0x080039e4   Section        0  main.o(i.MX_GPIO_Init)
    MX_GPIO_Init                             0x080039e5   Thumb Code   254  main.o(i.MX_GPIO_Init)
    i.MX_TIM3_Init                           0x08003b04   Section        0  main.o(i.MX_TIM3_Init)
    MX_TIM3_Init                             0x08003b05   Thumb Code    98  main.o(i.MX_TIM3_Init)
    i.MX_USART1_UART_Init                    0x08003b74   Section        0  main.o(i.MX_USART1_UART_Init)
    MX_USART1_UART_Init                      0x08003b75   Thumb Code    96  main.o(i.MX_USART1_UART_Init)
    i.NMI_Handler                            0x08003bdc   Section        0  stm32g0xx_it.o(i.NMI_Handler)
    i.PendSV_Handler                         0x08003bde   Section        0  stm32g0xx_it.o(i.PendSV_Handler)
    i.SVC_Handler                            0x08003be0   Section        0  stm32g0xx_it.o(i.SVC_Handler)
    i.SysTick_Handler                        0x08003be2   Section        0  stm32g0xx_it.o(i.SysTick_Handler)
    i.SystemClock_Config                     0x08003bea   Section        0  main.o(i.SystemClock_Config)
    i.SystemInit                             0x08003c6e   Section        0  system_stm32g0xx.o(i.SystemInit)
    i.TIM_Base_SetConfig                     0x08003c70   Section        0  stm32g0xx_hal_tim.o(i.TIM_Base_SetConfig)
    i.TIM_ETR_SetConfig                      0x08003ce8   Section        0  stm32g0xx_hal_tim.o(i.TIM_ETR_SetConfig)
    i.TIM_ITRx_SetConfig                     0x08003d00   Section        0  stm32g0xx_hal_tim.o(i.TIM_ITRx_SetConfig)
    TIM_ITRx_SetConfig                       0x08003d01   Thumb Code    16  stm32g0xx_hal_tim.o(i.TIM_ITRx_SetConfig)
    i.TIM_TI1_ConfigInputStage               0x08003d14   Section        0  stm32g0xx_hal_tim.o(i.TIM_TI1_ConfigInputStage)
    TIM_TI1_ConfigInputStage                 0x08003d15   Thumb Code    34  stm32g0xx_hal_tim.o(i.TIM_TI1_ConfigInputStage)
    i.TIM_TI2_ConfigInputStage               0x08003d36   Section        0  stm32g0xx_hal_tim.o(i.TIM_TI2_ConfigInputStage)
    TIM_TI2_ConfigInputStage                 0x08003d37   Thumb Code    38  stm32g0xx_hal_tim.o(i.TIM_TI2_ConfigInputStage)
    i.UARTEx_SetNbDataToProcess              0x08003d5c   Section        0  stm32g0xx_hal_uart_ex.o(i.UARTEx_SetNbDataToProcess)
    UARTEx_SetNbDataToProcess                0x08003d5d   Thumb Code    62  stm32g0xx_hal_uart_ex.o(i.UARTEx_SetNbDataToProcess)
    i.UART_AdvFeatureConfig                  0x08003da0   Section        0  stm32g0xx_hal_uart.o(i.UART_AdvFeatureConfig)
    i.UART_CheckIdleState                    0x08003e6c   Section        0  stm32g0xx_hal_uart.o(i.UART_CheckIdleState)
    i.UART_DMAAbortOnError                   0x08003ed0   Section        0  stm32g0xx_hal_uart.o(i.UART_DMAAbortOnError)
    UART_DMAAbortOnError                     0x08003ed1   Thumb Code    20  stm32g0xx_hal_uart.o(i.UART_DMAAbortOnError)
    i.UART_EndRxTransfer                     0x08003ee4   Section        0  stm32g0xx_hal_uart.o(i.UART_EndRxTransfer)
    UART_EndRxTransfer                       0x08003ee5   Thumb Code    96  stm32g0xx_hal_uart.o(i.UART_EndRxTransfer)
    i.UART_RxISR_16BIT                       0x08003f48   Section        0  stm32g0xx_hal_uart.o(i.UART_RxISR_16BIT)
    UART_RxISR_16BIT                         0x08003f49   Thumb Code   172  stm32g0xx_hal_uart.o(i.UART_RxISR_16BIT)
    i.UART_RxISR_16BIT_FIFOEN                0x08003ff4   Section        0  stm32g0xx_hal_uart.o(i.UART_RxISR_16BIT_FIFOEN)
    UART_RxISR_16BIT_FIFOEN                  0x08003ff5   Thumb Code   388  stm32g0xx_hal_uart.o(i.UART_RxISR_16BIT_FIFOEN)
    i.UART_RxISR_8BIT                        0x08004180   Section        0  stm32g0xx_hal_uart.o(i.UART_RxISR_8BIT)
    UART_RxISR_8BIT                          0x08004181   Thumb Code   172  stm32g0xx_hal_uart.o(i.UART_RxISR_8BIT)
    i.UART_RxISR_8BIT_FIFOEN                 0x0800422c   Section        0  stm32g0xx_hal_uart.o(i.UART_RxISR_8BIT_FIFOEN)
    UART_RxISR_8BIT_FIFOEN                   0x0800422d   Thumb Code   388  stm32g0xx_hal_uart.o(i.UART_RxISR_8BIT_FIFOEN)
    i.UART_SetConfig                         0x080043b8   Section        0  stm32g0xx_hal_uart.o(i.UART_SetConfig)
    i.UART_Start_Receive_IT                  0x08004520   Section        0  stm32g0xx_hal_uart.o(i.UART_Start_Receive_IT)
    i.UART_WaitOnFlagUntilTimeout            0x08004638   Section        0  stm32g0xx_hal_uart.o(i.UART_WaitOnFlagUntilTimeout)
    i.USART1_IRQHandler                      0x0800470c   Section        0  stm32g0xx_it.o(i.USART1_IRQHandler)
    i.__ARM_common_ll_muluu                  0x0800471c   Section        0  btod.o(i.__ARM_common_ll_muluu)
    i.__ARM_fpclassify                       0x0800474c   Section        0  fpclassify.o(i.__ARM_fpclassify)
    i.__NVIC_SetPriority                     0x08004778   Section        0  stm32g0xx_hal_cortex.o(i.__NVIC_SetPriority)
    __NVIC_SetPriority                       0x08004779   Thumb Code    60  stm32g0xx_hal_cortex.o(i.__NVIC_SetPriority)
    i.__kernel_poly                          0x080047bc   Section        0  poly.o(i.__kernel_poly)
    i.__mathlib_dbl_divzero                  0x08004868   Section        0  dunder.o(i.__mathlib_dbl_divzero)
    i.__mathlib_dbl_infnan2                  0x0800487c   Section        0  dunder.o(i.__mathlib_dbl_infnan2)
    i.__mathlib_dbl_invalid                  0x08004884   Section        0  dunder.o(i.__mathlib_dbl_invalid)
    i.__mathlib_dbl_overflow                 0x08004894   Section        0  dunder.o(i.__mathlib_dbl_overflow)
    i.__mathlib_dbl_underflow                0x080048a8   Section        0  dunder.o(i.__mathlib_dbl_underflow)
    i.__mathlib_narrow                       0x080048bc   Section        0  narrow.o(i.__mathlib_narrow)
    i.__mathlib_tofloat                      0x080048cc   Section        0  narrow.o(i.__mathlib_tofloat)
    i.__support_ldexp                        0x08004994   Section        0  ldexp.o(i.__support_ldexp)
    i._is_digit                              0x080049a8   Section        0  scanf_fp.o(i._is_digit)
    i.atof                                   0x080049b6   Section        0  atof.o(i.atof)
    i.creat_arr                              0x080049e0   Section        0  main.o(i.creat_arr)
    i.delay_1us                              0x08004ab8   Section        0  us100.o(i.delay_1us)
    i.delay_us                               0x08004ad0   Section        0  us100.o(i.delay_us)
    i.frexp                                  0x08004ae4   Section        0  frexp.o(i.frexp)
    i.get_distance                           0x08004b3c   Section        0  us100.o(i.get_distance)
    i.ldexp                                  0x08004bcc   Section        0  ldexp.o(i.ldexp)
    i.main                                   0x08004c3c   Section        0  main.o(i.main)
    i.pow                                    0x08004fc0   Section        0  pow.o(i.pow)
    i.sqrt                                   0x080059bc   Section        0  sqrt.o(i.sqrt)
    locale$$code                             0x08005a04   Section       44  lc_numeric_c.o(locale$$code)
    locale$$code                             0x08005a30   Section       44  lc_ctype_c.o(locale$$code)
    x$fpl$deqf                               0x08005a5c   Section      100  deqf.o(x$fpl$deqf)
    x$fpl$drleqf                             0x08005ac0   Section      104  drlef.o(x$fpl$drleqf)
    x$fpl$fmul                               0x08005b28   Section      176  fmul.o(x$fpl$fmul)
    x$fpl$scanf1                             0x08005bd8   Section       16  scanf1.o(x$fpl$scanf1)
    x$fpl$scanf2                             0x08005be8   Section       32  scanf2.o(x$fpl$scanf2)
    .constdata                               0x08005c08   Section       10  main.o(.constdata)
    x$fpl$usenofp                            0x08005c08   Section        0  usenofp.o(x$fpl$usenofp)
    .constdata                               0x08005c12   Section       24  stm32g0xx_hal_uart.o(.constdata)
    .constdata                               0x08005c2a   Section       16  stm32g0xx_hal_uart_ex.o(.constdata)
    numerator                                0x08005c2a   Data           8  stm32g0xx_hal_uart_ex.o(.constdata)
    denominator                              0x08005c32   Data           8  stm32g0xx_hal_uart_ex.o(.constdata)
    .constdata                               0x08005c3c   Section       64  system_stm32g0xx.o(.constdata)
    .constdata                               0x08005c7c   Section       32  system_stm32g0xx.o(.constdata)
    .constdata                               0x08005c9c   Section      128  ddiv.o(.constdata)
    ddiv_reciptbl                            0x08005c9c   Data         128  ddiv.o(.constdata)
    .constdata                               0x08005d20   Section      136  pow.o(.constdata)
    bp                                       0x08005d20   Data          16  pow.o(.constdata)
    dp_h                                     0x08005d30   Data          16  pow.o(.constdata)
    dp_l                                     0x08005d40   Data          16  pow.o(.constdata)
    L                                        0x08005d50   Data          48  pow.o(.constdata)
    P                                        0x08005d80   Data          40  pow.o(.constdata)
    .constdata                               0x08005da8   Section        8  qnan.o(.constdata)
    .constdata                               0x08005db0   Section      148  bigflt0.o(.constdata)
    tenpwrs_x                                0x08005db0   Data          60  bigflt0.o(.constdata)
    tenpwrs_i                                0x08005dec   Data          64  bigflt0.o(.constdata)
    c$$dinf                                  0x08005e64   Section        8  fpconst.o(c$$dinf)
    c$$dmax                                  0x08005e6c   Section        8  fpconst.o(c$$dmax)
    locale$$data                             0x08005e74   Section       28  lc_numeric_c.o(locale$$data)
    __lcnum_c_name                           0x08005e78   Data           2  lc_numeric_c.o(locale$$data)
    __lcnum_c_start                          0x08005e80   Data           0  lc_numeric_c.o(locale$$data)
    __lcnum_c_point                          0x08005e8c   Data           0  lc_numeric_c.o(locale$$data)
    __lcnum_c_thousands                      0x08005e8e   Data           0  lc_numeric_c.o(locale$$data)
    __lcnum_c_grouping                       0x08005e8f   Data           0  lc_numeric_c.o(locale$$data)
    locale$$data                             0x08005e90   Section      272  lc_ctype_c.o(locale$$data)
    __lcnum_c_end                            0x08005e90   Data           0  lc_numeric_c.o(locale$$data)
    __lcctype_c_name                         0x08005e94   Data           2  lc_ctype_c.o(locale$$data)
    __lcctype_c_start                        0x08005e9c   Data           0  lc_ctype_c.o(locale$$data)
    __lcctype_c_end                          0x08005fa0   Data           0  lc_ctype_c.o(locale$$data)
    .data                                    0x20000000   Section       64  main.o(.data)
    ind_op                                   0x2000000a   Data           1  main.o(.data)
    dem                                      0x2000000b   Data           1  main.o(.data)
    .data                                    0x20000040   Section       12  stm32g0xx_hal.o(.data)
    .data                                    0x2000004c   Section        4  system_stm32g0xx.o(.data)
    .bss                                     0x20000050   Section      656  main.o(.bss)
    .bss                                     0x200002e0   Section       96  libspace.o(.bss)
    HEAP                                     0x20000340   Section      512  startup_stm32g030xx.o(HEAP)
    Heap_Mem                                 0x20000340   Data         512  startup_stm32g030xx.o(HEAP)
    STACK                                    0x20000540   Section     1024  startup_stm32g030xx.o(STACK)
    Stack_Mem                                0x20000540   Data        1024  startup_stm32g030xx.o(STACK)
    __initial_sp                             0x20000940   Data           0  startup_stm32g030xx.o(STACK)

    Global Symbols

    Symbol Name                              Value     Ov Type        Size  Object(Section)

    BuildAttributes$$THM_ISAv3M$S$PE$A:L22$X:L11$S22$IEEE1$IW$USESV6$~STKCKD$USESV7$~SHL$OTIME$ROPI$IEEEX$EBA8$UX$STANDARDLIB$REQ8$PRES8$EABIv2 0x00000000   Number         0  anon$$obj.o ABSOLUTE
    __ARM_use_no_argv                        0x00000000   Number         0  main.o ABSOLUTE
    __ARM_exceptions_init                     - Undefined Weak Reference
    __alloca_initialize                       - Undefined Weak Reference
    __arm_fini_                               - Undefined Weak Reference
    __arm_preinit_                            - Undefined Weak Reference
    __cpp_initialize__aeabi_                  - Undefined Weak Reference
    __cxa_finalize                            - Undefined Weak Reference
    __sigvec_lookup                           - Undefined Weak Reference
    __user_heap_extent                        - Undefined Weak Reference
    _atexit_init                              - Undefined Weak Reference
    _call_atexit_fns                          - Undefined Weak Reference
    _clock_init                               - Undefined Weak Reference
    _fp_trap_init                             - Undefined Weak Reference
    _fp_trap_shutdown                         - Undefined Weak Reference
    _get_lc_collate                           - Undefined Weak Reference
    _get_lc_monetary                          - Undefined Weak Reference
    _get_lc_time                              - Undefined Weak Reference
    _getenv_init                              - Undefined Weak Reference
    _handle_redirection                       - Undefined Weak Reference
    _initio                                   - Undefined Weak Reference
    _mutex_acquire                            - Undefined Weak Reference
    _mutex_free                               - Undefined Weak Reference
    _mutex_release                            - Undefined Weak Reference
    _rand_init                                - Undefined Weak Reference
    _signal_finish                            - Undefined Weak Reference
    _signal_init                              - Undefined Weak Reference
    _terminateio                              - Undefined Weak Reference
    __Vectors_Size                           0x000000c0   Number         0  startup_stm32g030xx.o ABSOLUTE
    __Vectors                                0x08000000   Data           4  startup_stm32g030xx.o(RESET)
    __Vectors_End                            0x080000c0   Data           0  startup_stm32g030xx.o(RESET)
    __main                                   0x080000c1   Thumb Code     8  __main.o(!!!main)
    __scatterload                            0x080000c9   Thumb Code     0  __scatter.o(!!!scatter)
    __scatterload_rt2                        0x080000c9   Thumb Code    52  __scatter.o(!!!scatter)
    __scatterload_rt2_thumb_only             0x080000c9   Thumb Code     0  __scatter.o(!!!scatter)
    __scatterload_null                       0x080000d9   Thumb Code     0  __scatter.o(!!!scatter)
    __scatterload_copy                       0x08000105   Thumb Code    26  __scatter_copy.o(!!handler_copy)
    __scatterload_zeroinit                   0x08000121   Thumb Code    28  __scatter_zi.o(!!handler_zi)
    __rt_lib_init                            0x0800013d   Thumb Code     0  libinit.o(.ARM.Collect$$libinit$$00000000)
    __rt_lib_init_fp_1                       0x0800013f   Thumb Code     0  libinit2.o(.ARM.Collect$$libinit$$00000002)
    __rt_lib_init_heap_2                     0x0800013f   Thumb Code     0  libinit2.o(.ARM.Collect$$libinit$$00000005)
    __rt_lib_init_preinit_1                  0x0800013f   Thumb Code     0  libinit2.o(.ARM.Collect$$libinit$$00000004)
    __rt_lib_init_heap_1                     0x08000147   Thumb Code     0  libinit2.o(.ARM.Collect$$libinit$$0000000A)
    __rt_lib_init_lc_common                  0x08000147   Thumb Code     0  libinit2.o(.ARM.Collect$$libinit$$0000000F)
    __rt_lib_init_rand_1                     0x08000147   Thumb Code     0  libinit2.o(.ARM.Collect$$libinit$$0000000E)
    __rt_lib_init_user_alloc_1               0x08000147   Thumb Code     0  libinit2.o(.ARM.Collect$$libinit$$0000000C)
    __rt_lib_init_lc_collate_1               0x0800014d   Thumb Code     0  libinit2.o(.ARM.Collect$$libinit$$00000011)
    __rt_lib_init_lc_ctype_2                 0x0800014d   Thumb Code     0  libinit2.o(.ARM.Collect$$libinit$$00000012)
    __rt_lib_init_lc_ctype_1                 0x08000159   Thumb Code     0  libinit2.o(.ARM.Collect$$libinit$$00000013)
    __rt_lib_init_lc_monetary_1              0x08000159   Thumb Code     0  libinit2.o(.ARM.Collect$$libinit$$00000015)
    __rt_lib_init_lc_numeric_2               0x08000159   Thumb Code     0  libinit2.o(.ARM.Collect$$libinit$$00000016)
    __rt_lib_init_alloca_1                   0x08000163   Thumb Code     0  libinit2.o(.ARM.Collect$$libinit$$0000002E)
    __rt_lib_init_argv_1                     0x08000163   Thumb Code     0  libinit2.o(.ARM.Collect$$libinit$$0000002C)
    __rt_lib_init_atexit_1                   0x08000163   Thumb Code     0  libinit2.o(.ARM.Collect$$libinit$$0000001B)
    __rt_lib_init_clock_1                    0x08000163   Thumb Code     0  libinit2.o(.ARM.Collect$$libinit$$00000021)
    __rt_lib_init_cpp_1                      0x08000163   Thumb Code     0  libinit2.o(.ARM.Collect$$libinit$$00000032)
    __rt_lib_init_exceptions_1               0x08000163   Thumb Code     0  libinit2.o(.ARM.Collect$$libinit$$00000030)
    __rt_lib_init_fp_trap_1                  0x08000163   Thumb Code     0  libinit2.o(.ARM.Collect$$libinit$$0000001F)
    __rt_lib_init_getenv_1                   0x08000163   Thumb Code     0  libinit2.o(.ARM.Collect$$libinit$$00000023)
    __rt_lib_init_lc_numeric_1               0x08000163   Thumb Code     0  libinit2.o(.ARM.Collect$$libinit$$00000017)
    __rt_lib_init_lc_time_1                  0x08000163   Thumb Code     0  libinit2.o(.ARM.Collect$$libinit$$00000019)
    __rt_lib_init_return                     0x08000163   Thumb Code     0  libinit2.o(.ARM.Collect$$libinit$$00000033)
    __rt_lib_init_signal_1                   0x08000163   Thumb Code     0  libinit2.o(.ARM.Collect$$libinit$$0000001D)
    __rt_lib_init_stdio_1                    0x08000163   Thumb Code     0  libinit2.o(.ARM.Collect$$libinit$$00000025)
    __rt_lib_shutdown                        0x08000165   Thumb Code     0  libshutdown.o(.ARM.Collect$$libshutdown$$00000000)
    __rt_lib_shutdown_cpp_1                  0x08000167   Thumb Code     0  libshutdown2.o(.ARM.Collect$$libshutdown$$00000004)
    __rt_lib_shutdown_fini_1                 0x08000167   Thumb Code     0  libshutdown2.o(.ARM.Collect$$libshutdown$$00000002)
    __rt_lib_shutdown_fp_trap_1              0x08000167   Thumb Code     0  libshutdown2.o(.ARM.Collect$$libshutdown$$00000009)
    __rt_lib_shutdown_heap_1                 0x08000167   Thumb Code     0  libshutdown2.o(.ARM.Collect$$libshutdown$$00000011)
    __rt_lib_shutdown_return                 0x08000167   Thumb Code     0  libshutdown2.o(.ARM.Collect$$libshutdown$$00000012)
    __rt_lib_shutdown_signal_1               0x08000167   Thumb Code     0  libshutdown2.o(.ARM.Collect$$libshutdown$$0000000C)
    __rt_lib_shutdown_stdio_1                0x08000167   Thumb Code     0  libshutdown2.o(.ARM.Collect$$libshutdown$$00000006)
    __rt_lib_shutdown_user_alloc_1           0x08000167   Thumb Code     0  libshutdown2.o(.ARM.Collect$$libshutdown$$0000000E)
    __rt_entry                               0x08000169   Thumb Code     0  __rtentry.o(.ARM.Collect$$rtentry$$00000000)
    __rt_entry_presh_1                       0x08000169   Thumb Code     0  __rtentry2.o(.ARM.Collect$$rtentry$$00000002)
    __rt_entry_sh                            0x08000169   Thumb Code     0  __rtentry4.o(.ARM.Collect$$rtentry$$00000004)
    __rt_entry_li                            0x0800016f   Thumb Code     0  __rtentry2.o(.ARM.Collect$$rtentry$$0000000A)
    __rt_entry_postsh_1                      0x0800016f   Thumb Code     0  __rtentry2.o(.ARM.Collect$$rtentry$$00000009)
    __rt_entry_main                          0x08000173   Thumb Code     0  __rtentry2.o(.ARM.Collect$$rtentry$$0000000D)
    __rt_entry_postli_1                      0x08000173   Thumb Code     0  __rtentry2.o(.ARM.Collect$$rtentry$$0000000C)
    __rt_exit                                0x0800017b   Thumb Code     0  rtexit.o(.ARM.Collect$$rtexit$$00000000)
    __rt_exit_ls                             0x0800017d   Thumb Code     0  rtexit2.o(.ARM.Collect$$rtexit$$00000003)
    __rt_exit_prels_1                        0x0800017d   Thumb Code     0  rtexit2.o(.ARM.Collect$$rtexit$$00000002)
    __rt_exit_exit                           0x08000181   Thumb Code     0  rtexit2.o(.ARM.Collect$$rtexit$$00000004)
    Reset_Handler                            0x08000189   Thumb Code     8  startup_stm32g030xx.o(.text)
    _maybe_terminate_alloc                   0x08000189   Thumb Code     0  maybetermalloc1.o(.emb_text)
    ADC1_IRQHandler                          0x0800019b   Thumb Code     0  startup_stm32g030xx.o(.text)
    DMA1_Ch4_5_DMAMUX1_OVR_IRQHandler        0x0800019b   Thumb Code     0  startup_stm32g030xx.o(.text)
    DMA1_Channel1_IRQHandler                 0x0800019b   Thumb Code     0  startup_stm32g030xx.o(.text)
    DMA1_Channel2_3_IRQHandler               0x0800019b   Thumb Code     0  startup_stm32g030xx.o(.text)
    EXTI0_1_IRQHandler                       0x0800019b   Thumb Code     0  startup_stm32g030xx.o(.text)
    EXTI2_3_IRQHandler                       0x0800019b   Thumb Code     0  startup_stm32g030xx.o(.text)
    EXTI4_15_IRQHandler                      0x0800019b   Thumb Code     0  startup_stm32g030xx.o(.text)
    FLASH_IRQHandler                         0x0800019b   Thumb Code     0  startup_stm32g030xx.o(.text)
    I2C1_IRQHandler                          0x0800019b   Thumb Code     0  startup_stm32g030xx.o(.text)
    I2C2_IRQHandler                          0x0800019b   Thumb Code     0  startup_stm32g030xx.o(.text)
    RCC_IRQHandler                           0x0800019b   Thumb Code     0  startup_stm32g030xx.o(.text)
    RTC_TAMP_IRQHandler                      0x0800019b   Thumb Code     0  startup_stm32g030xx.o(.text)
    SPI1_IRQHandler                          0x0800019b   Thumb Code     0  startup_stm32g030xx.o(.text)
    SPI2_IRQHandler                          0x0800019b   Thumb Code     0  startup_stm32g030xx.o(.text)
    TIM14_IRQHandler                         0x0800019b   Thumb Code     0  startup_stm32g030xx.o(.text)
    TIM16_IRQHandler                         0x0800019b   Thumb Code     0  startup_stm32g030xx.o(.text)
    TIM17_IRQHandler                         0x0800019b   Thumb Code     0  startup_stm32g030xx.o(.text)
    TIM1_BRK_UP_TRG_COM_IRQHandler           0x0800019b   Thumb Code     0  startup_stm32g030xx.o(.text)
    TIM1_CC_IRQHandler                       0x0800019b   Thumb Code     0  startup_stm32g030xx.o(.text)
    TIM3_IRQHandler                          0x0800019b   Thumb Code     0  startup_stm32g030xx.o(.text)
    USART2_IRQHandler                        0x0800019b   Thumb Code     0  startup_stm32g030xx.o(.text)
    WWDG_IRQHandler                          0x0800019b   Thumb Code     0  startup_stm32g030xx.o(.text)
    __user_initial_stackheap                 0x0800019d   Thumb Code     0  startup_stm32g030xx.o(.text)
    malloc                                   0x080001c1   Thumb Code    98  h1_alloc.o(.text)
    free                                     0x08000223   Thumb Code    76  h1_free.o(.text)
    _memset_w                                0x0800026f   Thumb Code    26  rt_memclr.o(.text)
    _memset                                  0x08000289   Thumb Code    30  rt_memclr.o(.text)
    __aeabi_memclr                           0x080002a7   Thumb Code     4  rt_memclr.o(.text)
    __rt_memclr                              0x080002a7   Thumb Code     0  rt_memclr.o(.text)
    __aeabi_memclr4                          0x080002ab   Thumb Code     0  rt_memclr.o(.text)
    __aeabi_memclr8                          0x080002ab   Thumb Code     0  rt_memclr.o(.text)
    __rt_memclr_w                            0x080002ab   Thumb Code     4  rt_memclr.o(.text)
    __aeabi_uidiv                            0x080002af   Thumb Code     0  aeabi_sdiv.o(.text)
    __aeabi_uidivmod                         0x080002af   Thumb Code    20  aeabi_sdiv.o(.text)
    __aeabi_idiv                             0x080002c3   Thumb Code     0  aeabi_sdiv.o(.text)
    __aeabi_idivmod                          0x080002c3   Thumb Code   326  aeabi_sdiv.o(.text)
    __use_two_region_memory                  0x08000409   Thumb Code     2  heapauxi.o(.text)
    __rt_heap_escrow                         0x0800040b   Thumb Code     2  heapauxi.o(.text)
    __rt_heap_expand                         0x0800040d   Thumb Code     2  heapauxi.o(.text)
    __aeabi_d2f                              0x08000411   Thumb Code     0  d2f.o(.text)
    _d2f                                     0x08000411   Thumb Code   120  d2f.o(.text)
    __aeabi_ddiv                             0x0800048d   Thumb Code     0  ddiv.o(.text)
    _ddiv                                    0x0800048d   Thumb Code  1072  ddiv.o(.text)
    _drdiv                                   0x080008bd   Thumb Code    20  ddiv.o(.text)
    __aeabi_d2iz                             0x080008d5   Thumb Code     0  dfixi.o(.text)
    _dfix                                    0x080008d5   Thumb Code    98  dfixi.o(.text)
    __aeabi_i2d_normalise                    0x08000941   Thumb Code    66  dflti.o(.text)
    __aeabi_i2d                              0x08000983   Thumb Code    16  dflti.o(.text)
    _dflt                                    0x08000983   Thumb Code     0  dflti.o(.text)
    __aeabi_ui2d                             0x08000993   Thumb Code     6  dflti.o(.text)
    _dfltu                                   0x08000993   Thumb Code     0  dflti.o(.text)
    __aeabi_f2uiz                            0x08000999   Thumb Code     0  ffixui.o(.text)
    _ffixu                                   0x08000999   Thumb Code    48  ffixui.o(.text)
    __aeabi_i2f_normalise                    0x080009c9   Thumb Code    72  fflti.o(.text)
    __aeabi_i2f                              0x08000a11   Thumb Code    16  fflti.o(.text)
    _fflt                                    0x08000a11   Thumb Code     0  fflti.o(.text)
    __aeabi_ui2f                             0x08000a21   Thumb Code     6  fflti.o(.text)
    _ffltu                                   0x08000a21   Thumb Code     0  fflti.o(.text)
    __rt_heap_descriptor                     0x08000a29   Thumb Code     8  rt_heap_descriptor_intlibspace.o(.text)
    __use_no_heap                            0x08000a31   Thumb Code     2  hguard.o(.text)
    __heap$guard                             0x08000a33   Thumb Code     2  hguard.o(.text)
    _terminate_user_alloc                    0x08000a35   Thumb Code     2  init_alloc.o(.text)
    _init_user_alloc                         0x08000a37   Thumb Code     2  init_alloc.o(.text)
    __Heap_Full                              0x08000a39   Thumb Code    32  init_alloc.o(.text)
    __Heap_Broken                            0x08000a59   Thumb Code    10  init_alloc.o(.text)
    _init_alloc                              0x08000a63   Thumb Code    90  init_alloc.o(.text)
    __Heap_Initialize                        0x08000abd   Thumb Code    10  h1_init.o(.text)
    __Heap_DescSize                          0x08000ac7   Thumb Code     4  h1_init.o(.text)
    __read_errno                             0x08000acb   Thumb Code    10  _rserrno.o(.text)
    __set_errno                              0x08000ad5   Thumb Code    12  _rserrno.o(.text)
    __strtod_int                             0x08000b1d   Thumb Code    94  strtod.o(.text)
    __aeabi_dadd                             0x08000e85   Thumb Code     0  daddsub.o(.text)
    _dadd                                    0x08000e85   Thumb Code    26  daddsub.o(.text)
    __aeabi_dsub                             0x08000e9f   Thumb Code     0  daddsub.o(.text)
    _dsub                                    0x08000e9f   Thumb Code    22  daddsub.o(.text)
    __aeabi_drsub                            0x08000eb5   Thumb Code     0  daddsub.o(.text)
    _drsb                                    0x08000eb5   Thumb Code    28  daddsub.o(.text)
    __aeabi_dmul                             0x08000ee5   Thumb Code     0  dmul.o(.text)
    _dmul                                    0x08000ee5   Thumb Code   558  dmul.o(.text)
    __ARM_scalbn                             0x0800112d   Thumb Code    84  dscalbn.o(.text)
    __user_libspace                          0x0800118d   Thumb Code     8  libspace.o(.text)
    __user_perproc_libspace                  0x0800118d   Thumb Code     0  libspace.o(.text)
    __user_perthread_libspace                0x0800118d   Thumb Code     0  libspace.o(.text)
    __aeabi_errno_addr                       0x08001195   Thumb Code     8  rt_errno_addr_intlibspace.o(.text)
    __errno$intlibspace                      0x08001195   Thumb Code     0  rt_errno_addr_intlibspace.o(.text)
    __rt_errno_addr$intlibspace              0x08001195   Thumb Code     0  rt_errno_addr_intlibspace.o(.text)
    __Heap_ProvideMemory                     0x0800119d   Thumb Code    52  h1_extend.o(.text)
    isspace                                  0x080011d1   Thumb Code    18  isspace.o(.text)
    _sgetc                                   0x080011e3   Thumb Code    32  _sgetc.o(.text)
    _sbackspace                              0x08001203   Thumb Code    36  _sgetc.o(.text)
    __rt_SIGRTMEM                            0x08001227   Thumb Code    12  defsig_rtmem_outer.o(.text)
    __fpl_dcmp_InfNaN                        0x08001235   Thumb Code   140  dcmpin.o(.text)
    _dsqrt                                   0x080012c5   Thumb Code   248  dsqrt.o(.text)
    __I$use$semihosting                      0x080013c5   Thumb Code     0  use_no_semi.o(.text)
    __use_no_semihosting_swi                 0x080013c5   Thumb Code     2  use_no_semi.o(.text)
    __semihosting_library_function           0x080013c7   Thumb Code     0  indicate_semi.o(.text)
    __user_setup_stackheap                   0x080013c7   Thumb Code    62  sys_stackheap_outer.o(.text)
    __rt_ctype_table                         0x08001405   Thumb Code    16  rt_ctype_table.o(.text)
    _scanf_really_real                       0x0800166f   Thumb Code   710  scanf_fp.o(.text)
    exit                                     0x08001935   Thumb Code    16  exit.o(.text)
    __sig_exit                               0x08001945   Thumb Code    12  defsig_exit.o(.text)
    __rt_SIGRTMEM_inner                      0x08001951   Thumb Code    22  defsig_rtmem_inner.o(.text)
    strcmp                                   0x080019a1   Thumb Code   132  strcmp.o(.text)
    __fpl_cmpreturn                          0x08001a29   Thumb Code    46  cmpret.o(.text)
    __fpl_dcheck_NaN2                        0x08001a59   Thumb Code    14  dnan2.o(.text)
    _sys_exit                                0x08001a6d   Thumb Code     8  sys_exit.o(.text)
    __rt_locale                              0x08001a79   Thumb Code     8  rt_locale_intlibspace.o(.text)
    __aeabi_lmul                             0x08001a81   Thumb Code    48  llmul.o(.text)
    _ll_mul                                  0x08001a81   Thumb Code     0  llmul.o(.text)
    _btod_etento                             0x08001ab1   Thumb Code   210  bigflt0.o(.text)
    _btod_d2e                                0x08001b89   Thumb Code    64  btod.o(.text)
    _btod_emul                               0x08001fbd   Thumb Code    28  btod.o(.text)
    _btod_emuld                              0x08001fd9   Thumb Code   144  btod.o(.text)
    _btod_ediv                               0x08002069   Thumb Code    26  btod.o(.text)
    _btod_edivd                              0x08002083   Thumb Code   124  btod.o(.text)
    __default_signal_display                 0x08002109   Thumb Code    52  defsig_general.o(.text)
    __fpl_return_NaN                         0x0800213d   Thumb Code    94  retnan.o(.text)
    _ttywrch                                 0x0800219b   Thumb Code    12  sys_wrch.o(.text)
    _scanf_really_hex_real                   0x080021a9   Thumb Code   806  scanf_hexfp.o(.text)
    _scanf_really_infnan                     0x080024dd   Thumb Code   300  scanf_infnan.o(.text)
    __aeabi_llsl                             0x08002619   Thumb Code    32  llshl.o(.text)
    _ll_shift_l                              0x08002619   Thumb Code     0  llshl.o(.text)
    _chval                                   0x08002639   Thumb Code    30  _chval.o(.text)
    Crc8                                     0x08002659   Thumb Code    42  main.o(i.Crc8)
    HAL_DMA_Abort                            0x08002689   Thumb Code   112  stm32g0xx_hal_dma.o(i.HAL_DMA_Abort)
    HAL_DMA_Abort_IT                         0x080026fd   Thumb Code   118  stm32g0xx_hal_dma.o(i.HAL_DMA_Abort_IT)
    HAL_Delay                                0x08002779   Thumb Code    32  stm32g0xx_hal.o(i.HAL_Delay)
    HAL_GPIO_Init                            0x0800279d   Thumb Code   326  stm32g0xx_hal_gpio.o(i.HAL_GPIO_Init)
    HAL_GPIO_ReadPin                         0x080028f5   Thumb Code    10  stm32g0xx_hal_gpio.o(i.HAL_GPIO_ReadPin)
    HAL_GPIO_WritePin                        0x080028ff   Thumb Code    12  stm32g0xx_hal_gpio.o(i.HAL_GPIO_WritePin)
    HAL_GetTick                              0x0800290d   Thumb Code     6  stm32g0xx_hal.o(i.HAL_GetTick)
    HAL_IncTick                              0x08002919   Thumb Code    12  stm32g0xx_hal.o(i.HAL_IncTick)
    HAL_Init                                 0x08002929   Thumb Code    36  stm32g0xx_hal.o(i.HAL_Init)
    HAL_InitTick                             0x08002951   Thumb Code    64  stm32g0xx_hal.o(i.HAL_InitTick)
    HAL_MspInit                              0x08002999   Thumb Code    38  stm32g0xx_hal_msp.o(i.HAL_MspInit)
    HAL_NVIC_EnableIRQ                       0x080029c5   Thumb Code    18  stm32g0xx_hal_cortex.o(i.HAL_NVIC_EnableIRQ)
    HAL_NVIC_SetPriority                     0x080029dd   Thumb Code     8  stm32g0xx_hal_cortex.o(i.HAL_NVIC_SetPriority)
    HAL_PWREx_ControlVoltageScaling          0x080029e5   Thumb Code    62  stm32g0xx_hal_pwr_ex.o(i.HAL_PWREx_ControlVoltageScaling)
    HAL_RCCEx_PeriphCLKConfig                0x08002a31   Thumb Code   320  stm32g0xx_hal_rcc_ex.o(i.HAL_RCCEx_PeriphCLKConfig)
    HAL_RCC_ClockConfig                      0x08002b7d   Thumb Code   318  stm32g0xx_hal_rcc.o(i.HAL_RCC_ClockConfig)
    HAL_RCC_GetPCLK1Freq                     0x08002cd5   Thumb Code    26  stm32g0xx_hal_rcc.o(i.HAL_RCC_GetPCLK1Freq)
    HAL_RCC_GetSysClockFreq                  0x08002cfd   Thumb Code   130  stm32g0xx_hal_rcc.o(i.HAL_RCC_GetSysClockFreq)
    HAL_RCC_OscConfig                        0x08002d89   Thumb Code   954  stm32g0xx_hal_rcc.o(i.HAL_RCC_OscConfig)
    HAL_SYSTICK_Config                       0x08003169   Thumb Code    38  stm32g0xx_hal_cortex.o(i.HAL_SYSTICK_Config)
    HAL_TIMEx_MasterConfigSynchronization    0x08003199   Thumb Code    90  stm32g0xx_hal_tim_ex.o(i.HAL_TIMEx_MasterConfigSynchronization)
    HAL_TIM_Base_Init                        0x080031fd   Thumb Code    76  stm32g0xx_hal_tim.o(i.HAL_TIM_Base_Init)
    HAL_TIM_Base_MspInit                     0x08003249   Thumb Code    28  stm32g0xx_hal_msp.o(i.HAL_TIM_Base_MspInit)
    HAL_TIM_Base_Start                       0x0800326d   Thumb Code    60  stm32g0xx_hal_tim.o(i.HAL_TIM_Base_Start)
    HAL_TIM_ConfigClockSource                0x080032b5   Thumb Code   210  stm32g0xx_hal_tim.o(i.HAL_TIM_ConfigClockSource)
    HAL_UARTEx_DisableFifoMode               0x0800338d   Thumb Code    60  stm32g0xx_hal_uart_ex.o(i.HAL_UARTEx_DisableFifoMode)
    HAL_UARTEx_RxEventCallback               0x080033c9   Thumb Code     2  stm32g0xx_hal_uart.o(i.HAL_UARTEx_RxEventCallback)
    HAL_UARTEx_RxFifoFullCallback            0x080033cb   Thumb Code     2  stm32g0xx_hal_uart_ex.o(i.HAL_UARTEx_RxFifoFullCallback)
    HAL_UARTEx_SetRxFifoThreshold            0x080033cd   Thumb Code    72  stm32g0xx_hal_uart_ex.o(i.HAL_UARTEx_SetRxFifoThreshold)
    HAL_UARTEx_SetTxFifoThreshold            0x08003415   Thumb Code    70  stm32g0xx_hal_uart_ex.o(i.HAL_UARTEx_SetTxFifoThreshold)
    HAL_UARTEx_TxFifoEmptyCallback           0x0800345b   Thumb Code     2  stm32g0xx_hal_uart_ex.o(i.HAL_UARTEx_TxFifoEmptyCallback)
    HAL_UARTEx_WakeupCallback                0x0800345d   Thumb Code     2  stm32g0xx_hal_uart_ex.o(i.HAL_UARTEx_WakeupCallback)
    HAL_UART_ErrorCallback                   0x0800345f   Thumb Code     2  stm32g0xx_hal_uart.o(i.HAL_UART_ErrorCallback)
    HAL_UART_IRQHandler                      0x08003461   Thumb Code   726  stm32g0xx_hal_uart.o(i.HAL_UART_IRQHandler)
    HAL_UART_Init                            0x08003749   Thumb Code   108  stm32g0xx_hal_uart.o(i.HAL_UART_Init)
    HAL_UART_MspInit                         0x080037b5   Thumb Code   100  stm32g0xx_hal_msp.o(i.HAL_UART_MspInit)
    HAL_UART_Receive_IT                      0x08003825   Thumb Code   100  stm32g0xx_hal_uart.o(i.HAL_UART_Receive_IT)
    HAL_UART_RxCpltCallback                  0x08003889   Thumb Code   100  main.o(i.HAL_UART_RxCpltCallback)
    HAL_UART_Transmit                        0x080038f9   Thumb Code   216  stm32g0xx_hal_uart.o(i.HAL_UART_Transmit)
    HAL_UART_TxCpltCallback                  0x080039d1   Thumb Code     2  stm32g0xx_hal_uart.o(i.HAL_UART_TxCpltCallback)
    HardFault_Handler                        0x080039d3   Thumb Code     2  stm32g0xx_it.o(i.HardFault_Handler)
    Init_us100                               0x080039d5   Thumb Code    14  us100.o(i.Init_us100)
    NMI_Handler                              0x08003bdd   Thumb Code     2  stm32g0xx_it.o(i.NMI_Handler)
    PendSV_Handler                           0x08003bdf   Thumb Code     2  stm32g0xx_it.o(i.PendSV_Handler)
    SVC_Handler                              0x08003be1   Thumb Code     2  stm32g0xx_it.o(i.SVC_Handler)
    SysTick_Handler                          0x08003be3   Thumb Code     8  stm32g0xx_it.o(i.SysTick_Handler)
    SystemClock_Config                       0x08003beb   Thumb Code   132  main.o(i.SystemClock_Config)
    SystemInit                               0x08003c6f   Thumb Code     2  system_stm32g0xx.o(i.SystemInit)
    TIM_Base_SetConfig                       0x08003c71   Thumb Code   100  stm32g0xx_hal_tim.o(i.TIM_Base_SetConfig)
    TIM_ETR_SetConfig                        0x08003ce9   Thumb Code    22  stm32g0xx_hal_tim.o(i.TIM_ETR_SetConfig)
    UART_AdvFeatureConfig                    0x08003da1   Thumb Code   202  stm32g0xx_hal_uart.o(i.UART_AdvFeatureConfig)
    UART_CheckIdleState                      0x08003e6d   Thumb Code    94  stm32g0xx_hal_uart.o(i.UART_CheckIdleState)
    UART_SetConfig                           0x080043b9   Thumb Code   328  stm32g0xx_hal_uart.o(i.UART_SetConfig)
    UART_Start_Receive_IT                    0x08004521   Thumb Code   260  stm32g0xx_hal_uart.o(i.UART_Start_Receive_IT)
    UART_WaitOnFlagUntilTimeout              0x08004639   Thumb Code   210  stm32g0xx_hal_uart.o(i.UART_WaitOnFlagUntilTimeout)
    USART1_IRQHandler                        0x0800470d   Thumb Code    10  stm32g0xx_it.o(i.USART1_IRQHandler)
    __ARM_common_ll_muluu                    0x0800471d   Thumb Code    48  btod.o(i.__ARM_common_ll_muluu)
    __ARM_fpclassify                         0x0800474d   Thumb Code    40  fpclassify.o(i.__ARM_fpclassify)
    __kernel_poly                            0x080047bd   Thumb Code   172  poly.o(i.__kernel_poly)
    __mathlib_dbl_divzero                    0x08004869   Thumb Code    16  dunder.o(i.__mathlib_dbl_divzero)
    __mathlib_dbl_infnan2                    0x0800487d   Thumb Code     8  dunder.o(i.__mathlib_dbl_infnan2)
    __mathlib_dbl_invalid                    0x08004885   Thumb Code    16  dunder.o(i.__mathlib_dbl_invalid)
    __mathlib_dbl_overflow                   0x08004895   Thumb Code    16  dunder.o(i.__mathlib_dbl_overflow)
    __mathlib_dbl_underflow                  0x080048a9   Thumb Code    14  dunder.o(i.__mathlib_dbl_underflow)
    __mathlib_narrow                         0x080048bd   Thumb Code    16  narrow.o(i.__mathlib_narrow)
    __mathlib_tofloat                        0x080048cd   Thumb Code   190  narrow.o(i.__mathlib_tofloat)
    __support_ldexp                          0x08004995   Thumb Code    20  ldexp.o(i.__support_ldexp)
    _is_digit                                0x080049a9   Thumb Code    14  scanf_fp.o(i._is_digit)
    atof                                     0x080049b7   Thumb Code    42  atof.o(i.atof)
    creat_arr                                0x080049e1   Thumb Code   206  main.o(i.creat_arr)
    delay_1us                                0x08004ab9   Thumb Code    18  us100.o(i.delay_1us)
    delay_us                                 0x08004ad1   Thumb Code    20  us100.o(i.delay_us)
    frexp                                    0x08004ae5   Thumb Code    72  frexp.o(i.frexp)
    get_distance                             0x08004b3d   Thumb Code   140  us100.o(i.get_distance)
    ldexp                                    0x08004bcd   Thumb Code   112  ldexp.o(i.ldexp)
    main                                     0x08004c3d   Thumb Code   874  main.o(i.main)
    pow                                      0x08004fc1   Thumb Code  2548  pow.o(i.pow)
    sqrt                                     0x080059bd   Thumb Code    66  sqrt.o(i.sqrt)
    _get_lc_numeric                          0x08005a05   Thumb Code    44  lc_numeric_c.o(locale$$code)
    _get_lc_ctype                            0x08005a31   Thumb Code    44  lc_ctype_c.o(locale$$code)
    __aeabi_cdcmpeq                          0x08005a5d   Thumb Code     0  deqf.o(x$fpl$deqf)
    _dcmpeq                                  0x08005a5d   Thumb Code    94  deqf.o(x$fpl$deqf)
    __aeabi_cdrcmple                         0x08005ac1   Thumb Code     0  drlef.o(x$fpl$drleqf)
    _drcmple                                 0x08005ac1   Thumb Code   100  drlef.o(x$fpl$drleqf)
    __aeabi_fmul                             0x08005b29   Thumb Code     0  fmul.o(x$fpl$fmul)
    _fmul                                    0x08005b29   Thumb Code   172  fmul.o(x$fpl$fmul)
    _scanf_real                              0x08005bd9   Thumb Code    16  scanf1.o(x$fpl$scanf1)
    _scanf_hex_real                          0x08005be9   Thumb Code    16  scanf2.o(x$fpl$scanf2)
    _scanf_infnan                            0x08005bf9   Thumb Code    16  scanf2.o(x$fpl$scanf2)
    __I$use$fp                               0x08005c08   Number         0  usenofp.o(x$fpl$usenofp)
    UARTPrescTable                           0x08005c12   Data          24  stm32g0xx_hal_uart.o(.constdata)
    AHBPrescTable                            0x08005c3c   Data          64  system_stm32g0xx.o(.constdata)
    APBPrescTable                            0x08005c7c   Data          32  system_stm32g0xx.o(.constdata)
    __mathlib_zero                           0x08005da8   Data           8  qnan.o(.constdata)
    Region$$Table$$Base                      0x08005e44   Number         0  anon$$obj.o(Region$$Table)
    Region$$Table$$Limit                     0x08005e64   Number         0  anon$$obj.o(Region$$Table)
    __aeabi_HUGE_VAL                         0x08005e64   Data           0  fpconst.o(c$$dinf)
    __aeabi_HUGE_VALL                        0x08005e64   Data           0  fpconst.o(c$$dinf)
    __aeabi_INFINITY                         0x08005e64   Data           0  fpconst.o(c$$dinf)
    __dInf                                   0x08005e64   Data           0  fpconst.o(c$$dinf)
    __huge_val                               0x08005e64   Data           0  fpconst.o(c$$dinf)
    __dbl_max                                0x08005e6c   Data           0  fpconst.o(c$$dmax)
    __ctype                                  0x08005e9d   Data           0  lc_ctype_c.o(locale$$data)
    address                                  0x20000000   Data           1  main.o(.data)
    configInd                                0x20000001   Data           1  main.o(.data)
    state                                    0x20000002   Data           1  main.o(.data)
    funt                                     0x20000003   Data           1  main.o(.data)
    request                                  0x20000004   Data           1  main.o(.data)
    Ok                                       0x20000005   Data           1  main.o(.data)
    fc_config_char                           0x20000006   Data           1  main.o(.data)
    fc_request_char                          0x20000007   Data           1  main.o(.data)
    mode                                     0x20000008   Data           1  main.o(.data)
    latch                                    0x20000009   Data           1  main.o(.data)
    numTArr                                  0x2000000c   Data           1  main.o(.data)
    numRArr                                  0x2000000d   Data           1  main.o(.data)
    t_crc                                    0x2000000e   Data           1  main.o(.data)
    rx_crc                                   0x2000000f   Data           1  main.o(.data)
    rx_data                                  0x20000010   Data           1  main.o(.data)
    time_delay                               0x20000012   Data           2  main.o(.data)
    config                                   0x20000014   Data          44  main.o(.data)
    uwTickFreq                               0x20000040   Data           1  stm32g0xx_hal.o(.data)
    uwTickPrio                               0x20000044   Data           4  stm32g0xx_hal.o(.data)
    uwTick                                   0x20000048   Data           4  stm32g0xx_hal.o(.data)
    SystemCoreClock                          0x2000004c   Data           4  system_stm32g0xx.o(.data)
    distance                                 0x20000050   Data          18  main.o(.bss)
    htim3                                    0x20000064   Data          76  main.o(.bss)
    huart1                                   0x200000b0   Data         144  main.o(.bss)
    tranArr                                  0x20000140   Data         100  main.o(.bss)
    receiArr                                 0x200001a4   Data         100  main.o(.bss)
    sensor                                   0x20000208   Data         216  main.o(.bss)
    __libspace_start                         0x200002e0   Data          96  libspace.o(.bss)
    __temporary_stack_top$libspace           0x20000340   Data           0  libspace.o(.bss)



==============================================================================

Memory Map of the image

  Image Entry point : 0x080000c1

  Load Region LR_IROM1 (Base: 0x08000000, Size: 0x00005ff0, Max: 0x00008000, ABSOLUTE)

    Execution Region ER_IROM1 (Exec base: 0x08000000, Load base: 0x08000000, Size: 0x00005fa0, Max: 0x00008000, ABSOLUTE)

    Exec Addr    Load Addr    Size         Type   Attr      Idx    E Section Name        Object

    0x08000000   0x08000000   0x000000c0   Data   RO            3    RESET               startup_stm32g030xx.o
    0x080000c0   0x080000c0   0x00000008   Code   RO         3147  * !!!main             c_p.l(__main.o)
    0x080000c8   0x080000c8   0x0000003c   Code   RO         3530    !!!scatter          c_p.l(__scatter.o)
    0x08000104   0x08000104   0x0000001a   Code   RO         3532    !!handler_copy      c_p.l(__scatter_copy.o)
    0x0800011e   0x0800011e   0x00000002   PAD
    0x08000120   0x08000120   0x0000001c   Code   RO         3534    !!handler_zi        c_p.l(__scatter_zi.o)
    0x0800013c   0x0800013c   0x00000002   Code   RO         3399    .ARM.Collect$$libinit$$00000000  c_p.l(libinit.o)
    0x0800013e   0x0800013e   0x00000000   Code   RO         3221    .ARM.Collect$$libinit$$00000002  c_p.l(libinit2.o)
    0x0800013e   0x0800013e   0x00000000   Code   RO         3223    .ARM.Collect$$libinit$$00000004  c_p.l(libinit2.o)
    0x0800013e   0x0800013e   0x00000008   Code   RO         3224    .ARM.Collect$$libinit$$00000005  c_p.l(libinit2.o)
    0x08000146   0x08000146   0x00000000   Code   RO         3226    .ARM.Collect$$libinit$$0000000A  c_p.l(libinit2.o)
    0x08000146   0x08000146   0x00000000   Code   RO         3228    .ARM.Collect$$libinit$$0000000C  c_p.l(libinit2.o)
    0x08000146   0x08000146   0x00000000   Code   RO         3230    .ARM.Collect$$libinit$$0000000E  c_p.l(libinit2.o)
    0x08000146   0x08000146   0x00000006   Code   RO         3231    .ARM.Collect$$libinit$$0000000F  c_p.l(libinit2.o)
    0x0800014c   0x0800014c   0x00000000   Code   RO         3233    .ARM.Collect$$libinit$$00000011  c_p.l(libinit2.o)
    0x0800014c   0x0800014c   0x0000000c   Code   RO         3234    .ARM.Collect$$libinit$$00000012  c_p.l(libinit2.o)
    0x08000158   0x08000158   0x00000000   Code   RO         3235    .ARM.Collect$$libinit$$00000013  c_p.l(libinit2.o)
    0x08000158   0x08000158   0x00000000   Code   RO         3237    .ARM.Collect$$libinit$$00000015  c_p.l(libinit2.o)
    0x08000158   0x08000158   0x0000000a   Code   RO         3238    .ARM.Collect$$libinit$$00000016  c_p.l(libinit2.o)
    0x08000162   0x08000162   0x00000000   Code   RO         3239    .ARM.Collect$$libinit$$00000017  c_p.l(libinit2.o)
    0x08000162   0x08000162   0x00000000   Code   RO         3241    .ARM.Collect$$libinit$$00000019  c_p.l(libinit2.o)
    0x08000162   0x08000162   0x00000000   Code   RO         3243    .ARM.Collect$$libinit$$0000001B  c_p.l(libinit2.o)
    0x08000162   0x08000162   0x00000000   Code   RO         3245    .ARM.Collect$$libinit$$0000001D  c_p.l(libinit2.o)
    0x08000162   0x08000162   0x00000000   Code   RO         3247    .ARM.Collect$$libinit$$0000001F  c_p.l(libinit2.o)
    0x08000162   0x08000162   0x00000000   Code   RO         3249    .ARM.Collect$$libinit$$00000021  c_p.l(libinit2.o)
    0x08000162   0x08000162   0x00000000   Code   RO         3251    .ARM.Collect$$libinit$$00000023  c_p.l(libinit2.o)
    0x08000162   0x08000162   0x00000000   Code   RO         3253    .ARM.Collect$$libinit$$00000025  c_p.l(libinit2.o)
    0x08000162   0x08000162   0x00000000   Code   RO         3257    .ARM.Collect$$libinit$$0000002C  c_p.l(libinit2.o)
    0x08000162   0x08000162   0x00000000   Code   RO         3259    .ARM.Collect$$libinit$$0000002E  c_p.l(libinit2.o)
    0x08000162   0x08000162   0x00000000   Code   RO         3261    .ARM.Collect$$libinit$$00000030  c_p.l(libinit2.o)
    0x08000162   0x08000162   0x00000000   Code   RO         3263    .ARM.Collect$$libinit$$00000032  c_p.l(libinit2.o)
    0x08000162   0x08000162   0x00000002   Code   RO         3264    .ARM.Collect$$libinit$$00000033  c_p.l(libinit2.o)
    0x08000164   0x08000164   0x00000002   Code   RO         3515    .ARM.Collect$$libshutdown$$00000000  c_p.l(libshutdown.o)
    0x08000166   0x08000166   0x00000000   Code   RO         3437    .ARM.Collect$$libshutdown$$00000002  c_p.l(libshutdown2.o)
    0x08000166   0x08000166   0x00000000   Code   RO         3439    .ARM.Collect$$libshutdown$$00000004  c_p.l(libshutdown2.o)
    0x08000166   0x08000166   0x00000000   Code   RO         3441    .ARM.Collect$$libshutdown$$00000006  c_p.l(libshutdown2.o)
    0x08000166   0x08000166   0x00000000   Code   RO         3444    .ARM.Collect$$libshutdown$$00000009  c_p.l(libshutdown2.o)
    0x08000166   0x08000166   0x00000000   Code   RO         3447    .ARM.Collect$$libshutdown$$0000000C  c_p.l(libshutdown2.o)
    0x08000166   0x08000166   0x00000000   Code   RO         3449    .ARM.Collect$$libshutdown$$0000000E  c_p.l(libshutdown2.o)
    0x08000166   0x08000166   0x00000000   Code   RO         3452    .ARM.Collect$$libshutdown$$00000011  c_p.l(libshutdown2.o)
    0x08000166   0x08000166   0x00000002   Code   RO         3453    .ARM.Collect$$libshutdown$$00000012  c_p.l(libshutdown2.o)
    0x08000168   0x08000168   0x00000000   Code   RO         3180    .ARM.Collect$$rtentry$$00000000  c_p.l(__rtentry.o)
    0x08000168   0x08000168   0x00000000   Code   RO         3307    .ARM.Collect$$rtentry$$00000002  c_p.l(__rtentry2.o)
    0x08000168   0x08000168   0x00000006   Code   RO         3319    .ARM.Collect$$rtentry$$00000004  c_p.l(__rtentry4.o)
    0x0800016e   0x0800016e   0x00000000   Code   RO         3309    .ARM.Collect$$rtentry$$00000009  c_p.l(__rtentry2.o)
    0x0800016e   0x0800016e   0x00000004   Code   RO         3310    .ARM.Collect$$rtentry$$0000000A  c_p.l(__rtentry2.o)
    0x08000172   0x08000172   0x00000000   Code   RO         3312    .ARM.Collect$$rtentry$$0000000C  c_p.l(__rtentry2.o)
    0x08000172   0x08000172   0x00000008   Code   RO         3313    .ARM.Collect$$rtentry$$0000000D  c_p.l(__rtentry2.o)
    0x0800017a   0x0800017a   0x00000002   Code   RO         3407    .ARM.Collect$$rtexit$$00000000  c_p.l(rtexit.o)
    0x0800017c   0x0800017c   0x00000000   Code   RO         3477    .ARM.Collect$$rtexit$$00000002  c_p.l(rtexit2.o)
    0x0800017c   0x0800017c   0x00000004   Code   RO         3478    .ARM.Collect$$rtexit$$00000003  c_p.l(rtexit2.o)
    0x08000180   0x08000180   0x00000006   Code   RO         3479    .ARM.Collect$$rtexit$$00000004  c_p.l(rtexit2.o)
    0x08000186   0x08000186   0x00000002   PAD
    0x08000188   0x08000188   0x00000000   Code   RO         3330    .emb_text           c_p.l(maybetermalloc1.o)
    0x08000188   0x08000188   0x00000038   Code   RO            4    .text               startup_stm32g030xx.o
    0x080001c0   0x080001c0   0x00000062   Code   RO         3081    .text               c_p.l(h1_alloc.o)
    0x08000222   0x08000222   0x0000004c   Code   RO         3083    .text               c_p.l(h1_free.o)
    0x0800026e   0x0800026e   0x00000040   Code   RO         3139    .text               c_p.l(rt_memclr.o)
    0x080002ae   0x080002ae   0x0000015a   Code   RO         3141    .text               c_p.l(aeabi_sdiv.o)
    0x08000408   0x08000408   0x00000006   Code   RO         3145    .text               c_p.l(heapauxi.o)
    0x0800040e   0x0800040e   0x00000002   PAD
    0x08000410   0x08000410   0x0000007c   Code   RO         3149    .text               fz_ps.l(d2f.o)
    0x0800048c   0x0800048c   0x00000448   Code   RO         3151    .text               fz_ps.l(ddiv.o)
    0x080008d4   0x080008d4   0x0000006c   Code   RO         3154    .text               fz_ps.l(dfixi.o)
    0x08000940   0x08000940   0x00000058   Code   RO         3156    .text               fz_ps.l(dflti.o)
    0x08000998   0x08000998   0x00000030   Code   RO         3158    .text               fz_ps.l(ffixui.o)
    0x080009c8   0x080009c8   0x0000005e   Code   RO         3160    .text               fz_ps.l(fflti.o)
    0x08000a26   0x08000a26   0x00000002   PAD
    0x08000a28   0x08000a28   0x00000008   Code   RO         3188    .text               c_p.l(rt_heap_descriptor_intlibspace.o)
    0x08000a30   0x08000a30   0x00000004   Code   RO         3190    .text               c_p.l(hguard.o)
    0x08000a34   0x08000a34   0x00000088   Code   RO         3192    .text               c_p.l(init_alloc.o)
    0x08000abc   0x08000abc   0x0000000e   Code   RO         3196    .text               c_p.l(h1_init.o)
    0x08000aca   0x08000aca   0x00000016   Code   RO         3210    .text               c_p.l(_rserrno.o)
    0x08000ae0   0x08000ae0   0x000000ac   Code   RO         3212    .text               c_p.l(strtod.o)
    0x08000b8c   0x08000b8c   0x00000358   Code   RO         3265    .text               fz_ps.l(daddsub.o)
    0x08000ee4   0x08000ee4   0x00000248   Code   RO         3267    .text               fz_ps.l(dmul.o)
    0x0800112c   0x0800112c   0x00000060   Code   RO         3271    .text               fz_ps.l(dscalbn.o)
    0x0800118c   0x0800118c   0x00000008   Code   RO         3303    .text               c_p.l(libspace.o)
    0x08001194   0x08001194   0x00000008   Code   RO         3326    .text               c_p.l(rt_errno_addr_intlibspace.o)
    0x0800119c   0x0800119c   0x00000034   Code   RO         3332    .text               c_p.l(h1_extend.o)
    0x080011d0   0x080011d0   0x00000012   Code   RO         3336    .text               c_p.l(isspace.o)
    0x080011e2   0x080011e2   0x00000044   Code   RO         3338    .text               c_p.l(_sgetc.o)
    0x08001226   0x08001226   0x0000000c   Code   RO         3343    .text               c_p.l(defsig_rtmem_outer.o)
    0x08001232   0x08001232   0x00000002   PAD
    0x08001234   0x08001234   0x00000090   Code   RO         3352    .text               fz_ps.l(dcmpin.o)
    0x080012c4   0x080012c4   0x00000100   Code   RO         3356    .text               fz_ps.l(dsqrt.o)
    0x080013c4   0x080013c4   0x00000002   Code   RO         3362    .text               c_p.l(use_no_semi.o)
    0x080013c6   0x080013c6   0x00000000   Code   RO         3364    .text               c_p.l(indicate_semi.o)
    0x080013c6   0x080013c6   0x0000003e   Code   RO         3365    .text               c_p.l(sys_stackheap_outer.o)
    0x08001404   0x08001404   0x00000010   Code   RO         3368    .text               c_p.l(rt_ctype_table.o)
    0x08001414   0x08001414   0x00000520   Code   RO         3374    .text               c_p.l(scanf_fp.o)
    0x08001934   0x08001934   0x00000010   Code   RO         3378    .text               c_p.l(exit.o)
    0x08001944   0x08001944   0x0000000c   Code   RO         3380    .text               c_p.l(defsig_exit.o)
    0x08001950   0x08001950   0x00000050   Code   RO         3386    .text               c_p.l(defsig_rtmem_inner.o)
    0x080019a0   0x080019a0   0x00000088   Code   RO         3388    .text               c_p.l(strcmp.o)
    0x08001a28   0x08001a28   0x0000002e   Code   RO         3400    .text               fz_ps.l(cmpret.o)
    0x08001a56   0x08001a56   0x00000002   PAD
    0x08001a58   0x08001a58   0x00000014   Code   RO         3402    .text               fz_ps.l(dnan2.o)
    0x08001a6c   0x08001a6c   0x0000000c   Code   RO         3404    .text               c_p.l(sys_exit.o)
    0x08001a78   0x08001a78   0x00000008   Code   RO         3412    .text               c_p.l(rt_locale_intlibspace.o)
    0x08001a80   0x08001a80   0x00000030   Code   RO         3418    .text               c_p.l(llmul.o)
    0x08001ab0   0x08001ab0   0x000000d8   Code   RO         3420    .text               c_p.l(bigflt0.o)
    0x08001b88   0x08001b88   0x00000580   Code   RO         3423    .text               c_p.l(btod.o)
    0x08002108   0x08002108   0x00000034   Code   RO         3432    .text               c_p.l(defsig_general.o)
    0x0800213c   0x0800213c   0x0000005e   Code   RO         3460    .text               fz_ps.l(retnan.o)
    0x0800219a   0x0800219a   0x0000000c   Code   RO         3474    .text               c_p.l(sys_wrch.o)
    0x080021a6   0x080021a6   0x00000002   PAD
    0x080021a8   0x080021a8   0x00000334   Code   RO         3483    .text               c_p.l(scanf_hexfp.o)
    0x080024dc   0x080024dc   0x0000013c   Code   RO         3485    .text               c_p.l(scanf_infnan.o)
    0x08002618   0x08002618   0x00000020   Code   RO         3495    .text               c_p.l(llshl.o)
    0x08002638   0x08002638   0x0000001e   Code   RO         3497    .text               c_p.l(_chval.o)
    0x08002656   0x08002656   0x00000002   PAD
    0x08002658   0x08002658   0x00000030   Code   RO           12    i.Crc8              main.o
    0x08002688   0x08002688   0x00000074   Code   RO         1804    i.HAL_DMA_Abort     stm32g0xx_hal_dma.o
    0x080026fc   0x080026fc   0x0000007c   Code   RO         1805    i.HAL_DMA_Abort_IT  stm32g0xx_hal_dma.o
    0x08002778   0x08002778   0x00000024   Code   RO         2262    i.HAL_Delay         stm32g0xx_hal.o
    0x0800279c   0x0800279c   0x00000158   Code   RO         1737    i.HAL_GPIO_Init     stm32g0xx_hal_gpio.o
    0x080028f4   0x080028f4   0x0000000a   Code   RO         1739    i.HAL_GPIO_ReadPin  stm32g0xx_hal_gpio.o
    0x080028fe   0x080028fe   0x0000000c   Code   RO         1741    i.HAL_GPIO_WritePin  stm32g0xx_hal_gpio.o
    0x0800290a   0x0800290a   0x00000002   PAD
    0x0800290c   0x0800290c   0x0000000c   Code   RO         2266    i.HAL_GetTick       stm32g0xx_hal.o
    0x08002918   0x08002918   0x00000010   Code   RO         2272    i.HAL_IncTick       stm32g0xx_hal.o
    0x08002928   0x08002928   0x00000028   Code   RO         2273    i.HAL_Init          stm32g0xx_hal.o
    0x08002950   0x08002950   0x00000048   Code   RO         2274    i.HAL_InitTick      stm32g0xx_hal.o
    0x08002998   0x08002998   0x0000002c   Code   RO          268    i.HAL_MspInit       stm32g0xx_hal_msp.o
    0x080029c4   0x080029c4   0x00000018   Code   RO         2150    i.HAL_NVIC_EnableIRQ  stm32g0xx_hal_cortex.o
    0x080029dc   0x080029dc   0x00000008   Code   RO         2154    i.HAL_NVIC_SetPriority  stm32g0xx_hal_cortex.o
    0x080029e4   0x080029e4   0x0000004c   Code   RO         2035    i.HAL_PWREx_ControlVoltageScaling  stm32g0xx_hal_pwr_ex.o
    0x08002a30   0x08002a30   0x0000014c   Code   RO         1503    i.HAL_RCCEx_PeriphCLKConfig  stm32g0xx_hal_rcc_ex.o
    0x08002b7c   0x08002b7c   0x00000158   Code   RO         1387    i.HAL_RCC_ClockConfig  stm32g0xx_hal_rcc.o
    0x08002cd4   0x08002cd4   0x00000028   Code   RO         1395    i.HAL_RCC_GetPCLK1Freq  stm32g0xx_hal_rcc.o
    0x08002cfc   0x08002cfc   0x0000008c   Code   RO         1397    i.HAL_RCC_GetSysClockFreq  stm32g0xx_hal_rcc.o
    0x08002d88   0x08002d88   0x000003e0   Code   RO         1401    i.HAL_RCC_OscConfig  stm32g0xx_hal_rcc.o
    0x08003168   0x08003168   0x00000030   Code   RO         2158    i.HAL_SYSTICK_Config  stm32g0xx_hal_cortex.o
    0x08003198   0x08003198   0x00000064   Code   RO         1110    i.HAL_TIMEx_MasterConfigSynchronization  stm32g0xx_hal_tim_ex.o
    0x080031fc   0x080031fc   0x0000004c   Code   RO          375    i.HAL_TIM_Base_Init  stm32g0xx_hal_tim.o
    0x08003248   0x08003248   0x00000024   Code   RO          270    i.HAL_TIM_Base_MspInit  stm32g0xx_hal_msp.o
    0x0800326c   0x0800326c   0x00000048   Code   RO          378    i.HAL_TIM_Base_Start  stm32g0xx_hal_tim.o
    0x080032b4   0x080032b4   0x000000d8   Code   RO          384    i.HAL_TIM_ConfigClockSource  stm32g0xx_hal_tim.o
    0x0800338c   0x0800338c   0x0000003c   Code   RO         2935    i.HAL_UARTEx_DisableFifoMode  stm32g0xx_hal_uart_ex.o
    0x080033c8   0x080033c8   0x00000002   Code   RO         2528    i.HAL_UARTEx_RxEventCallback  stm32g0xx_hal_uart.o
    0x080033ca   0x080033ca   0x00000002   Code   RO         2942    i.HAL_UARTEx_RxFifoFullCallback  stm32g0xx_hal_uart_ex.o
    0x080033cc   0x080033cc   0x00000048   Code   RO         2943    i.HAL_UARTEx_SetRxFifoThreshold  stm32g0xx_hal_uart_ex.o
    0x08003414   0x08003414   0x00000046   Code   RO         2944    i.HAL_UARTEx_SetTxFifoThreshold  stm32g0xx_hal_uart_ex.o
    0x0800345a   0x0800345a   0x00000002   Code   RO         2946    i.HAL_UARTEx_TxFifoEmptyCallback  stm32g0xx_hal_uart_ex.o
    0x0800345c   0x0800345c   0x00000002   Code   RO         2947    i.HAL_UARTEx_WakeupCallback  stm32g0xx_hal_uart_ex.o
    0x0800345e   0x0800345e   0x00000002   Code   RO         2544    i.HAL_UART_ErrorCallback  stm32g0xx_hal_uart.o
    0x08003460   0x08003460   0x000002e8   Code   RO         2547    i.HAL_UART_IRQHandler  stm32g0xx_hal_uart.o
    0x08003748   0x08003748   0x0000006c   Code   RO         2548    i.HAL_UART_Init     stm32g0xx_hal_uart.o
    0x080037b4   0x080037b4   0x00000070   Code   RO          272    i.HAL_UART_MspInit  stm32g0xx_hal_msp.o
    0x08003824   0x08003824   0x00000064   Code   RO         2553    i.HAL_UART_Receive_IT  stm32g0xx_hal_uart.o
    0x08003888   0x08003888   0x00000070   Code   RO           14    i.HAL_UART_RxCpltCallback  main.o
    0x080038f8   0x080038f8   0x000000d8   Code   RO         2557    i.HAL_UART_Transmit  stm32g0xx_hal_uart.o
    0x080039d0   0x080039d0   0x00000002   Code   RO         2560    i.HAL_UART_TxCpltCallback  stm32g0xx_hal_uart.o
    0x080039d2   0x080039d2   0x00000002   Code   RO          214    i.HardFault_Handler  stm32g0xx_it.o
    0x080039d4   0x080039d4   0x0000000e   Code   RO          333    i.Init_us100        us100.o
    0x080039e2   0x080039e2   0x00000002   PAD
    0x080039e4   0x080039e4   0x00000120   Code   RO           15    i.MX_GPIO_Init      main.o
    0x08003b04   0x08003b04   0x00000070   Code   RO           16    i.MX_TIM3_Init      main.o
    0x08003b74   0x08003b74   0x00000068   Code   RO           17    i.MX_USART1_UART_Init  main.o
    0x08003bdc   0x08003bdc   0x00000002   Code   RO          215    i.NMI_Handler       stm32g0xx_it.o
    0x08003bde   0x08003bde   0x00000002   Code   RO          216    i.PendSV_Handler    stm32g0xx_it.o
    0x08003be0   0x08003be0   0x00000002   Code   RO          217    i.SVC_Handler       stm32g0xx_it.o
    0x08003be2   0x08003be2   0x00000008   Code   RO          218    i.SysTick_Handler   stm32g0xx_it.o
    0x08003bea   0x08003bea   0x00000084   Code   RO           18    i.SystemClock_Config  main.o
    0x08003c6e   0x08003c6e   0x00000002   Code   RO         3044    i.SystemInit        system_stm32g0xx.o
    0x08003c70   0x08003c70   0x00000078   Code   RO          468    i.TIM_Base_SetConfig  stm32g0xx_hal_tim.o
    0x08003ce8   0x08003ce8   0x00000016   Code   RO          479    i.TIM_ETR_SetConfig  stm32g0xx_hal_tim.o
    0x08003cfe   0x08003cfe   0x00000002   PAD
    0x08003d00   0x08003d00   0x00000014   Code   RO          480    i.TIM_ITRx_SetConfig  stm32g0xx_hal_tim.o
    0x08003d14   0x08003d14   0x00000022   Code   RO          488    i.TIM_TI1_ConfigInputStage  stm32g0xx_hal_tim.o
    0x08003d36   0x08003d36   0x00000026   Code   RO          490    i.TIM_TI2_ConfigInputStage  stm32g0xx_hal_tim.o
    0x08003d5c   0x08003d5c   0x00000044   Code   RO         2948    i.UARTEx_SetNbDataToProcess  stm32g0xx_hal_uart_ex.o
    0x08003da0   0x08003da0   0x000000ca   Code   RO         2562    i.UART_AdvFeatureConfig  stm32g0xx_hal_uart.o
    0x08003e6a   0x08003e6a   0x00000002   PAD
    0x08003e6c   0x08003e6c   0x00000064   Code   RO         2563    i.UART_CheckIdleState  stm32g0xx_hal_uart.o
    0x08003ed0   0x08003ed0   0x00000014   Code   RO         2564    i.UART_DMAAbortOnError  stm32g0xx_hal_uart.o
    0x08003ee4   0x08003ee4   0x00000064   Code   RO         2574    i.UART_EndRxTransfer  stm32g0xx_hal_uart.o
    0x08003f48   0x08003f48   0x000000ac   Code   RO         2576    i.UART_RxISR_16BIT  stm32g0xx_hal_uart.o
    0x08003ff4   0x08003ff4   0x0000018c   Code   RO         2577    i.UART_RxISR_16BIT_FIFOEN  stm32g0xx_hal_uart.o
    0x08004180   0x08004180   0x000000ac   Code   RO         2578    i.UART_RxISR_8BIT   stm32g0xx_hal_uart.o
    0x0800422c   0x0800422c   0x0000018c   Code   RO         2579    i.UART_RxISR_8BIT_FIFOEN  stm32g0xx_hal_uart.o
    0x080043b8   0x080043b8   0x00000168   Code   RO         2580    i.UART_SetConfig    stm32g0xx_hal_uart.o
    0x08004520   0x08004520   0x00000118   Code   RO         2582    i.UART_Start_Receive_IT  stm32g0xx_hal_uart.o
    0x08004638   0x08004638   0x000000d2   Code   RO         2587    i.UART_WaitOnFlagUntilTimeout  stm32g0xx_hal_uart.o
    0x0800470a   0x0800470a   0x00000002   PAD
    0x0800470c   0x0800470c   0x00000010   Code   RO          219    i.USART1_IRQHandler  stm32g0xx_it.o
    0x0800471c   0x0800471c   0x00000030   Code   RO         3425    i.__ARM_common_ll_muluu  c_p.l(btod.o)
    0x0800474c   0x0800474c   0x0000002c   Code   RO         3288    i.__ARM_fpclassify  m_ps.l(fpclassify.o)
    0x08004778   0x08004778   0x00000044   Code   RO         2160    i.__NVIC_SetPriority  stm32g0xx_hal_cortex.o
    0x080047bc   0x080047bc   0x000000ac   Code   RO         3290    i.__kernel_poly     m_ps.l(poly.o)
    0x08004868   0x08004868   0x00000014   Code   RO         3274    i.__mathlib_dbl_divzero  m_ps.l(dunder.o)
    0x0800487c   0x0800487c   0x00000008   Code   RO         3276    i.__mathlib_dbl_infnan2  m_ps.l(dunder.o)
    0x08004884   0x08004884   0x00000010   Code   RO         3277    i.__mathlib_dbl_invalid  m_ps.l(dunder.o)
    0x08004894   0x08004894   0x00000014   Code   RO         3278    i.__mathlib_dbl_overflow  m_ps.l(dunder.o)
    0x080048a8   0x080048a8   0x00000014   Code   RO         3280    i.__mathlib_dbl_underflow  m_ps.l(dunder.o)
    0x080048bc   0x080048bc   0x00000010   Code   RO         3468    i.__mathlib_narrow  m_ps.l(narrow.o)
    0x080048cc   0x080048cc   0x000000c8   Code   RO         3469    i.__mathlib_tofloat  m_ps.l(narrow.o)
    0x08004994   0x08004994   0x00000014   Code   RO         3517    i.__support_ldexp   m_ps.l(ldexp.o)
    0x080049a8   0x080049a8   0x0000000e   Code   RO         3376    i._is_digit         c_p.l(scanf_fp.o)
    0x080049b6   0x080049b6   0x0000002a   Code   RO         3165    i.atof              m_ps.l(atof.o)
    0x080049e0   0x080049e0   0x000000d8   Code   RO           20    i.creat_arr         main.o
    0x08004ab8   0x08004ab8   0x00000018   Code   RO          334    i.delay_1us         us100.o
    0x08004ad0   0x08004ad0   0x00000014   Code   RO          335    i.delay_us          us100.o
    0x08004ae4   0x08004ae4   0x00000058   Code   RO         3492    i.frexp             m_ps.l(frexp.o)
    0x08004b3c   0x08004b3c   0x00000090   Code   RO          336    i.get_distance      us100.o
    0x08004bcc   0x08004bcc   0x00000070   Code   RO         3518    i.ldexp             m_ps.l(ldexp.o)
    0x08004c3c   0x08004c3c   0x00000384   Code   RO           21    i.main              main.o
    0x08004fc0   0x08004fc0   0x000009fc   Code   RO         3169    i.pow               m_ps.l(pow.o)
    0x080059bc   0x080059bc   0x00000048   Code   RO         3294    i.sqrt              m_ps.l(sqrt.o)
    0x08005a04   0x08005a04   0x0000002c   Code   RO         3341    locale$$code        c_p.l(lc_numeric_c.o)
    0x08005a30   0x08005a30   0x0000002c   Code   RO         3428    locale$$code        c_p.l(lc_ctype_c.o)
    0x08005a5c   0x08005a5c   0x00000064   Code   RO         3489    x$fpl$deqf          fz_ps.l(deqf.o)
    0x08005ac0   0x08005ac0   0x00000068   Code   RO         3269    x$fpl$drleqf        fz_ps.l(drlef.o)
    0x08005b28   0x08005b28   0x000000b0   Code   RO         3162    x$fpl$fmul          fz_ps.l(fmul.o)
    0x08005bd8   0x08005bd8   0x00000010   Code   RO         3360    x$fpl$scanf1        fz_ps.l(scanf1.o)
    0x08005be8   0x08005be8   0x00000020   Code   RO         3462    x$fpl$scanf2        fz_ps.l(scanf2.o)
    0x08005c08   0x08005c08   0x00000000   Code   RO         3273    x$fpl$usenofp       fz_ps.l(usenofp.o)
    0x08005c08   0x08005c08   0x0000000a   Data   RO           26    .constdata          main.o
    0x08005c12   0x08005c12   0x00000018   Data   RO         2588    .constdata          stm32g0xx_hal_uart.o
    0x08005c2a   0x08005c2a   0x00000010   Data   RO         2949    .constdata          stm32g0xx_hal_uart_ex.o
    0x08005c3a   0x08005c3a   0x00000002   PAD
    0x08005c3c   0x08005c3c   0x00000040   Data   RO         3045    .constdata          system_stm32g0xx.o
    0x08005c7c   0x08005c7c   0x00000020   Data   RO         3046    .constdata          system_stm32g0xx.o
    0x08005c9c   0x08005c9c   0x00000080   Data   RO         3152    .constdata          fz_ps.l(ddiv.o)
    0x08005d1c   0x08005d1c   0x00000004   PAD
    0x08005d20   0x08005d20   0x00000088   Data   RO         3170    .constdata          m_ps.l(pow.o)
    0x08005da8   0x08005da8   0x00000008   Data   RO         3292    .constdata          m_ps.l(qnan.o)
    0x08005db0   0x08005db0   0x00000094   Data   RO         3421    .constdata          c_p.l(bigflt0.o)
    0x08005e44   0x08005e44   0x00000020   Data   RO         3528    Region$$Table       anon$$obj.o
    0x08005e64   0x08005e64   0x00000008   Data   RO         3454    c$$dinf             fz_ps.l(fpconst.o)
    0x08005e6c   0x08005e6c   0x00000008   Data   RO         3457    c$$dmax             fz_ps.l(fpconst.o)
    0x08005e74   0x08005e74   0x0000001c   Data   RO         3340    locale$$data        c_p.l(lc_numeric_c.o)
    0x08005e90   0x08005e90   0x00000110   Data   RO         3427    locale$$data        c_p.l(lc_ctype_c.o)


    Execution Region RW_IRAM1 (Exec base: 0x20000000, Load base: 0x08005fa0, Size: 0x00000940, Max: 0x00002000, ABSOLUTE)

    Exec Addr    Load Addr    Size         Type   Attr      Idx    E Section Name        Object

    0x20000000   0x08005fa0   0x00000040   Data   RW           27    .data               main.o
    0x20000040   0x08005fe0   0x0000000c   Data   RW         2286    .data               stm32g0xx_hal.o
    0x2000004c   0x08005fec   0x00000004   Data   RW         3047    .data               system_stm32g0xx.o
    0x20000050        -       0x00000290   Zero   RW           22    .bss                main.o
    0x200002e0        -       0x00000060   Zero   RW         3304    .bss                c_p.l(libspace.o)
    0x20000340        -       0x00000200   Zero   RW            2    HEAP                startup_stm32g030xx.o
    0x20000540        -       0x00000400   Zero   RW            1    STACK               startup_stm32g030xx.o


==============================================================================

Image component sizes


      Code (inc. data)   RO Data    RW Data    ZI Data      Debug   Object Name

      1912        110         10         64        656     395853   main.o
        56         26        192          0       1536        628   startup_stm32g030xx.o
       176         26          0         12          0      15949   stm32g0xx_hal.o
       148         24          0          0          0      12041   stm32g0xx_hal_cortex.o
       240         10          0          0          0       1887   stm32g0xx_hal_dma.o
         0          0          0          0          0       2704   stm32g0xx_hal_flash.o
       366         18          0          0          0       2527   stm32g0xx_hal_gpio.o
       192         26          0          0          0       2044   stm32g0xx_hal_msp.o
        76         14          0          0          0        730   stm32g0xx_hal_pwr_ex.o
      1516         88          0          0          0      20133   stm32g0xx_hal_rcc.o
       332         12          0          0          0       1608   stm32g0xx_hal_rcc_ex.o
       598         42          0          0          0       6400   stm32g0xx_hal_tim.o
       100         10          0          0          0       1368   stm32g0xx_hal_tim_ex.o
      3582         96         24          0          0      41606   stm32g0xx_hal_uart.o
       276          6         16          0          0       5074   stm32g0xx_hal_uart_ex.o
        32          6          0          0          0       2523   stm32g0xx_it.o
         2          0         96          4          0       1083   system_stm32g0xx.o
       202         10          0          0          0       2479   us100.o

    ----------------------------------------------------------------------
      9816        524        372         80       2192     516637   Object Totals
         0          0         32          0          0          0   (incl. Generated)
        10          0          2          0          0          0   (incl. Padding)

    ----------------------------------------------------------------------

      Code (inc. data)   RO Data    RW Data    ZI Data      Debug   Library Member Name

         8          0          0          0          0         68   __main.o
         0          0          0          0          0          0   __rtentry.o
        12          0          0          0          0          0   __rtentry2.o
         6          0          0          0          0          0   __rtentry4.o
        60          8          0          0          0          0   __scatter.o
        26          0          0          0          0          0   __scatter_copy.o
        28          0          0          0          0          0   __scatter_zi.o
        30          0          0          0          0         60   _chval.o
        22          0          0          0          0         92   _rserrno.o
        68          0          0          0          0         76   _sgetc.o
       346          0          0          0          0         92   aeabi_sdiv.o
       216          6        148          0          0         80   bigflt0.o
      1456         30          0          0          0        336   btod.o
        12          0          0          0          0         68   defsig_exit.o
        52          0          0          0          0         72   defsig_general.o
        80         58          0          0          0         68   defsig_rtmem_inner.o
        12          0          0          0          0         68   defsig_rtmem_outer.o
        16          0          0          0          0         68   exit.o
        98          0          0          0          0         72   h1_alloc.o
        52          0          0          0          0         68   h1_extend.o
        76          0          0          0          0         72   h1_free.o
        14          0          0          0          0         76   h1_init.o
         6          0          0          0          0        136   heapauxi.o
         4          0          0          0          0        120   hguard.o
         0          0          0          0          0          0   indicate_semi.o
       136          0          0          0          0        160   init_alloc.o
        18          0          0          0          0         68   isspace.o
        44         10        272          0          0         76   lc_ctype_c.o
        44         10         28          0          0         76   lc_numeric_c.o
         2          0          0          0          0          0   libinit.o
        38          0          0          0          0          0   libinit2.o
         2          0          0          0          0          0   libshutdown.o
         2          0          0          0          0          0   libshutdown2.o
         8          4          0          0         96         68   libspace.o
        48          0          0          0          0         72   llmul.o
        32          0          0          0          0         68   llshl.o
         0          0          0          0          0          0   maybetermalloc1.o
        16          4          0          0          0         76   rt_ctype_table.o
         8          4          0          0          0         68   rt_errno_addr_intlibspace.o
         8          4          0          0          0         68   rt_heap_descriptor_intlibspace.o
         8          4          0          0          0         68   rt_locale_intlibspace.o
        64          0          0          0          0        108   rt_memclr.o
         2          0          0          0          0          0   rtexit.o
        10          0          0          0          0          0   rtexit2.o
      1326         24          0          0          0        184   scanf_fp.o
       820         14          0          0          0         84   scanf_hexfp.o
       316         16          0          0          0         84   scanf_infnan.o
       136          4          0          0          0         72   strcmp.o
       172         18          0          0          0        120   strtod.o
        12          4          0          0          0         60   sys_exit.o
        62          0          0          0          0         80   sys_stackheap_outer.o
        12          0          0          0          0         68   sys_wrch.o
         2          0          0          0          0         68   use_no_semi.o
        46          0          0          0          0         60   cmpret.o
       124          4          0          0          0         72   d2f.o
       856         20          0          0          0        208   daddsub.o
       144          4          0          0          0         76   dcmpin.o
      1096         26        128          0          0        112   ddiv.o
       100          4          0          0          0         92   deqf.o
       108         10          0          0          0         72   dfixi.o
        88          0          0          0          0         92   dflti.o
       584         26          0          0          0         84   dmul.o
        20          6          0          0          0         68   dnan2.o
       104          4          0          0          0        104   drlef.o
        96         12          0          0          0         72   dscalbn.o
       256          8          0          0          0         76   dsqrt.o
        48          0          0          0          0         60   ffixui.o
        94          0          0          0          0         92   fflti.o
       176          4          0          0          0         80   fmul.o
         0          0         16          0          0          0   fpconst.o
        94          0          0          0          0         68   retnan.o
        16          4          0          0          0         76   scanf1.o
        32          8          0          0          0        100   scanf2.o
         0          0          0          0          0          0   usenofp.o
        42          0          0          0          0         76   atof.o
        84         14          0          0          0        340   dunder.o
        44          4          0          0          0         60   fpclassify.o
        88         16          0          0          0         72   frexp.o
       132          0          0          0          0        140   ldexp.o
       216         10          0          0          0        144   narrow.o
       172          0          0          0          0         76   poly.o
      2556        196        136          0          0        240   pow.o
         0          0          8          0          0          0   qnan.o
        72          6          0          0          0         76   sqrt.o

    ----------------------------------------------------------------------
     13552        608        740          0         96       6376   Library Totals
        16          0          4          0          0          0   (incl. Padding)

    ----------------------------------------------------------------------

      Code (inc. data)   RO Data    RW Data    ZI Data      Debug   Library Name

      6048        222        448          0         96       3488   c_p.l
      4082        140        144          0          0       1664   fz_ps.l
      3406        246        144          0          0       1224   m_ps.l

    ----------------------------------------------------------------------
     13552        608        740          0         96       6376   Library Totals

    ----------------------------------------------------------------------

==============================================================================


      Code (inc. data)   RO Data    RW Data    ZI Data      Debug   

     23368       1132       1112         80       2288     516577   Grand Totals
     23368       1132       1112         80       2288     516577   ELF Image Totals
     23368       1132       1112         80          0          0   ROM Totals

==============================================================================

    Total RO  Size (Code + RO Data)                24480 (  23.91kB)
    Total RW  Size (RW Data + ZI Data)              2368 (   2.31kB)
    Total ROM Size (Code + RO Data + RW Data)      24560 (  23.98kB)

==============================================================================

